:100000000C945D000C9422040C94FB030C9485006A
:100010000C9485000C9485000C9485000C9485004C
:100020000C9485000C9485000C9485000C9485003C
:100030000C9485000C9485000C9485000C9485002C
:100040000C94B1030C9485000C9485000C948500ED
:100050000C9485000C9485000C9485000C9485000C
:100060000C9449040C948500000000002400270033
:100070002A0000000000250028002B0004040404CE
:100080000404040402020202020203030303030342
:10009000010204081020408001020408102001021F
:1000A00004081020000000080002010000030407FB
:1000B00000000000000000006B0811241FBECFEFFD
:1000C000D8E0DEBFCDBF11E0A0E0B1E0ECE1F6E1A9
:1000D00002C005900D92AA31B107D9F722E0AAE13A
:1000E000B1E001C01D92A931B207E1F710E0CDE502
:1000F000D0E004C02197FE010E94060BCC35D10749
:10010000C9F70E9468050C940C0B0C9400009091A8
:100110000C0280910B022FEF3FEF981748F4E92F64
:10012000F0E0E551FE4F208130E09F5F90930C029C
:10013000C901089590910C0280910B022FEF3FEFBF
:10014000981748F4E92FF0E0E551FE4F208130E0A8
:100150009F5F90930C02C9010895CF930E949A006B
:10016000811104C01092E901CF910895813019F4F2
:100170008093E901F9CF823049F40E949A0021E08E
:10018000892B09F420E020931B01EECF833049F442
:100190000E949A0021E0892B09F420E020931A01A3
:1001A000E3CF8430B9F40E949A00BC01990F880B08
:1001B000990B0E94910920E030E048EC52E40E9443
:1001C000EE086093B1017093B2018093B3019093F4
:1001D000B401CACF8530E1F40E949A00C82F0E9472
:1001E0009A0060E07C2F682B792B90E080E00E94E1
:1001F0008F0920E030E44CE156E40E94EE08609361
:100200000401709305018093060190930701ACCF20
:100210008630D9F50E949A00C82F0E949A0060E0AB
:100220007C2F682B792B072E000C880B990B0E94D2
:10023000910920E030E040E251E40E94EE08609332
:10024000BD017093BE018093BF019093C0010E94D5
:100250009A00C82F0E949A0060E07C2F682B792BAF
:10026000072E000C880B990B0E94910920E030E0CA
:1002700040E251E40E94EE086093AD017093AE013C
:100280008093AF019093B0016FCF873009F06CCFAE
:1002900081E08093EA0168CFE0919D01F0919E0199
:1002A000309729F010929A011092990109940895BB
:1002B000CF93DF93AC01E0919B01F0919C013097CB
:1002C000F1F090910C0280910B029817C0F090E031
:1002D000292F30E02617370754F4D901A551BE4F16
:1002E000240F351FE90128812C939F5FF1CF1092D5
:1002F0000C0260930B02CB01DF91CF910994DF9147
:10030000CF91089590E0FC01EC55FF4F2491FC0142
:10031000E057FF4F3491FC01E458FF4FE491EE2386
:10032000C9F0222339F0233001F1A8F4213019F16A
:10033000223029F1F0E0EE0FFF1FEE58FF4FA5919C
:10034000B4918FB7F894EC91611126C030953E239B
:100350003C938FBF08952730A9F02830C9F024308E
:1003600049F7809180008F7D03C0809180008F7756
:1003700080938000DFCF84B58F7784BDDBCF84B5D9
:100380008F7DFBCF8091B0008F778093B000D2CF6C
:100390008091B0008F7DF9CF3E2BDACFCF93DF93E2
:1003A00090E0FC01E057FF4F249184589F4FFC01DF
:1003B00084918823D1F090E0880F991FFC01E859BF
:1003C000FF4FA591B491FC01EE58FF4FC591D49118
:1003D00061110EC09FB7F8948C91E22FE0958E23A7
:1003E0008C932881E223E8839FBFDF91CF9108950A
:1003F0008FB7F894EC91E22BEC938FBFF6CF3FB719
:10040000F8948091910190919201A0919301B09103
:10041000940126B5A89B05C02F3F19F00196A11D98
:10042000B11D3FBFBA2FA92F982F8827BC01CD013E
:10043000620F711D811D911D42E0660F771F881F9D
:10044000991F4A95D1F70895AF92BF92CF92DF924C
:10045000EF92FF920F931F93CF93DF930E94FF01C0
:10046000DC019B01AD0160E070E080E090E0A090D5
:10047000C901B090CA01C090CB01D090CC01E090EE
:10048000CD01F090CE010091CF011091D0010E94DA
:10049000F10A2093E1013093E2014093E30150938C
:1004A000E4016093E5017093E6018093E701909386
:1004B000E801DF91CF911F910F91FF90EF90DF90B6
:1004C000CF90BF90AF900895AF92BF92CF92DF923E
:1004D000EF92FF920F931F93CF93DF930E94FF0140
:1004E000DC019B01AD0160E070E080E090E0A09055
:1004F000C101B090C201C090C301D090C401E0908E
:10050000C501F090C6010091C7011091C8010E9479
:10051000F10A2093D9013093DA014093DB01509323
:10052000DC016093DD017093DE018093DF01909325
:10053000E001DF91CF911F910F91FF90EF90DF903D
:10054000CF90BF90AF900895089520914201260F5B
:100550003327331F21323105ECF420916601FC0171
:1005600090E080E0243069F082E00895A09142019B
:100570002191AC014E5D5E4FA40FB52FB11D2C93A0
:100580000196861798F380914201680F60934201AB
:1005900080E0089581E008951092660181E08093E3
:1005A00068011092670161E082E10E94820161E0CE
:1005B00083E10E948201E9EBF0E080818E7F8083FD
:1005C00080818D7F808388E48093B80085E4809368
:1005D000BC0008950895E0910C0280910B02E81789
:1005E00030F4F0E0E551FE4F808190E008958FEF08
:1005F0009FEF089580910B0290910C02891B990B3B
:100600000895CF93DF93CB01EA01642F0E94A502E6
:10061000CE01DF91CF910895CF93DF931F92CDB795
:10062000DEB7698361E0CE0101960E94A50281E0F8
:1006300090E00F90DF91CF910895682F8DE092E0C8
:100640000C940C03CF93DF9380911A01882311F14E
:10065000D091A201C091A3018C2F90E00E941D03B4
:100660008D2F9C2F0E941D03D0919F01C091A0014E
:100670008C2F90E00E941D038D2F9C2F0E941D0344
:1006800080911B01882319F081E08093EA01DF91BA
:10069000CF9108956091A4018DE092E00E940C0337
:1006A0006091A1018DE092E00E940C03E9CF90E0FF
:1006B00080E00895CF93DF9385ED8093BC00809117
:1006C0001E0190911F01A0912001B0912101079678
:1006D000A11DB11D23E0B695A795979587952A95FD
:1006E000D1F72091BC0024FD03C01092660136C0F2
:1006F00040911E0150911F016091200170912101D4
:10070000452B462B472B69F30097A105B10541F016
:1007100025E32A95F1F700000197A109B109E1CF7E
:1007200080911D0191E090931C018823B9F0C09144
:10073000B800D091BA008091BC008A7B8093BC0045
:1007400060E082E10E94820160E083E10E94820118
:100750000E94CC02D093BA00C093B800DF91CF9131
:1007600008951F920F920FB60F9211242F933F936B
:100770008F939F93AF93BF9380918D0190918E0142
:10078000A0918F01B091900130918C0123E0230F53
:100790002D3758F50196A11DB11D20938C01809332
:1007A0008D0190938E01A0938F01B0939001809161
:1007B000910190919201A0919301B09194010196C1
:1007C000A11DB11D8093910190939201A09393017B
:1007D000B0939401BF91AF919F918F913F912F91D1
:1007E0000F900FBE0F901F90189526E8230F0296CA
:1007F000A11DB11DD2CF1F920F920FB60F921124DF
:100800002F933F934F935F936F937F938F939F9318
:10081000AF93BF93EF93FF93E0910201F091030137
:100820000995FF91EF91BF91AF919F918F917F912A
:100830006F915F914F913F912F910F900FBE0F904D
:100840001F9018951F920F920FB60F9211242F939D
:100850003F934F935F936F937F938F939F93AF9348
:10086000BF93EF93FF93E0910001F091010109958F
:10087000FF91EF91BF91AF919F918F917F916F9178
:100880005F914F913F912F910F900FBE0F901F904E
:1008900018951F920F920FB60F9211242F933F932A
:1008A0004F935F936F937F938F939F93AF93BF9378
:1008B000EF93FF938091B900887F803609F44AC096
:1008C000F0F5883209F4A7C018F5803109F49BC00F
:1008D000B8F4882309F4F9C0883009F494C0FF9172
:1008E000EF91BF91AF919F918F917F916F915F91A8
:1008F0004F913F912F910F900FBE0F901F90189521
:10090000883109F488C0803251F78093650114C0A2
:10091000803409F49DC040F48033B9F38833F9F68C
:100920008093650185ECB0C0803509F485C08835B9
:1009300009F496C0883499F60E945A03D0CF8839BA
:1009400009F48CC038F5883729F050F4883611F056
:10095000803729F683E0809366011092640157C0C6
:10096000883809F47BC0803919F0803809F0B7CF96
:1009700080916401803208F071C0E091640181E0EF
:100980008E0F809364018091BB00F0E0EC5BFE4F22
:1009900080833DC0803B39F0E0F4803A09F479C0AF
:1009A000883A09F09CCF84E080936601109243015D
:1009B00010924201E0919701F09198010995809180
:1009C000420181110FC081E0809342011092220107
:1009D00009C0803C09F4A6CF883C09F4A3CF883B2A
:1009E00009F07DCFE091430181E08E0F80934301B8
:1009F000F0E0EE5DFE4F80818093BB00909143015B
:100A00008091420129C080918B018093BB0085ECCD
:100A10008093BC0064CF90918A01809189019817DE
:100A200058F5E0918A0181E08E0F80938A01F0E011
:100A3000E759FE4F8081E9CFE0918A0181E08E0F76
:100A400080938A018091BB00F0E0E759FE4F8083DC
:100A500090918A01809189019817C8F285E8D8CFD2
:100A6000E0918A0181E08E0F80938A018091BB0022
:100A7000F0E0E759FE4F80838091680181115CCFDF
:100A800081E08093670184EA8093BC001092660144
:100A900026CF85EC8093BC001092660180916401A2
:100AA000803230F4E0916401F0E0EC5BFE4F1082A4
:100AB0006091640170E0E0919501F091960184E409
:100AC00091E00995109264010ACF1092650134CF2C
:100AD000CF93DF93CDB7DEB72F970FB6F894DEBF75
:100AE0000FBECDBF789484B5826084BD84B581602B
:100AF00084BD85B5826085BD85B5816085BD8091E9
:100B00006E00816080936E00109281008091810060
:100B10008260809381008091810081608093810058
:100B2000809180008160809380008091B10084601A
:100B30008093B1008091B00081608093B00080917B
:100B40007A00846080937A0080917A00826080933A
:100B50007A0080917A00816080937A0080917A0097
:100B6000806880937A001092C10010920C0210925B
:100B70000B0210929A01109299010E94CC028CE40F
:100B800091E0909398018093970188E591E090938C
:100B90009601809395018CED8093BA000E94FF012D
:100BA0004B015C0194E6C92ED12CE12CF12C0E9462
:100BB000FF01681979098A099B09683E734081051C
:100BC0009105A8F301E0C01AD108E108F10818EE78
:100BD000810E13E0911EA11CB11CC114D104E104CB
:100BE000F10429F761E084E00E94CE0160E082E038
:100BF0000E94CE0161E085E00E94CE0160E083E0CA
:100C00000E94CE0161E08DE00E94CE0184E292E07C
:100C10009093010180930001809169008C7F826034
:100C200080936900E89A84E692E0909303018093B0
:100C3000020180916900837F886080936900E99A4E
:100C40008DEA90E090939C0180939B0182E293E077
:100C500090939E0180939D018091EA01882309F47D
:100C60001EC28091E901882309F417C21092E101A4
:100C70001092E2011092E3011092E4011092E5015A
:100C80001092E6011092E7011092E8011092D9014A
:100C90001092DA011092DB011092DC011092DD015A
:100CA0001092DE011092DF011092E00161E08DE010
:100CB0000E94820130E33BB983E290E00197F1F7B3
:100CC0001BB80E94FF017B018C0120E030E0A901EC
:100CD0006983FA828B831C832D833E834F835887DD
:100CE0006093D101F092D2018093D3011093D4018B
:100CF0001092D5011092D6011092D7011092D8010E
:100D00006093C9010A810093CA011B811093CB0132
:100D10002C812093CC011092CD011092CE01109223
:100D2000CF011092D0016093C1010093C2011093D2
:100D3000C3012093C4011092C5011092C601109204
:100D4000C7011092C80160E08DE00E9482010E94FC
:100D5000FF01A091E101AF874090E2015090E301D3
:100D60006090E4017090E501B091E601F091E70137
:100D7000E091E8012090D901E090DA01E986F09055
:100D8000DB01FA860091DC010B871091DD011C87E5
:100D90002091DE012D873090DF013091E0013E8708
:100DA0009B01AC0160E070E080E090E0A980BA8037
:100DB000CB80DC80ED80FE800F8118850E94F10AD7
:100DC000273F344241405105610571058105910578
:100DD00009F0C8F42F85342D452D562D672D7B2F16
:100DE0008F2F9E2FA0E00E94FA0A09F4B0CF222D87
:100DF00039854A855B856C857D85832D9E850E941E
:100E0000FA0A09F4A4CF8090040190900501A09003
:100E10000601B09007012F85342D452D562D672DE5
:100E20007B2F8F2F9E2F0E94CC09A50194010E9439
:100E3000840A20E030E040E05FE30E94840A2091D1
:100E4000BD013091BE014091BF015091C0010E948F
:100E50007D086B017C0120E030E0A9010E94E908D7
:100E600087FD27C120E030E046E154E4C701B60128
:100E70000E947F0A18160CF41CC1C092B901D092CE
:100E8000BA01E092BB01F092BC014090B1015090D8
:100E9000B2016090B3017090B401A301920160E0CF
:100EA00070E080E89FE30E947C0869837A838B83EB
:100EB0009C832091B5013091B6014091B7015091CA
:100EC000B801C301B2010E94840A6B017C01209128
:100ED000B9013091BA014091BB015091BC016981C7
:100EE0007A818B819C810E94840A9B01AC01C7019D
:100EF000B6010E947D086B017C01C092B501D092C1
:100F0000B601E092B701F092B801222D39854A85E9
:100F10005B856C857D85832D9E850E94CC09A5010E
:100F200094010E94840A20E030E040E05FE30E94E8
:100F3000840A2091AD013091AE014091AF015091F2
:100F4000B0010E947D084B015C0120E030E0A90166
:100F50000E94E90887FDB6C020E030E046E154E495
:100F6000C501B4010E947F0A18160CF4ABC0809230
:100F7000A9019092AA01A092AB01B092AC0120917C
:100F8000A5013091A6014091A7015091A801C3018C
:100F9000B2010E94840A4B015C012091A9013091A9
:100FA000AA014091AB015091AC0169817A818B819A
:100FB0009C810E94840A9B01AC01C501B4010E947E
:100FC0007D084B015C018092A5019092A601A09240
:100FD000A701B092A80120E030E04FEF53E4C70131
:100FE000B6010E947F0A60E0181654F020E030E05D
:100FF00040E05FE3C701B6010E94840A0E946009D5
:101000006093A40120E038EC4CEC55E4C701B60134
:101010000E947F0A70E060E0181654F020E030E093
:1010200040E251E4C701B6010E94840A0E946009AF
:101030007093A3016093A20120E030E04FEF53E4EE
:10104000C501B4010E947F0A60E0181654F020E048
:1010500030E040E05FE3C501B4010E94840A0E94D1
:1010600060096093A10120E038EC4CEC55E4C50127
:10107000B4010E947F0A70E060E0181654F020E08E
:1010800030E040E251E4C501B4010E94840A0E94AC
:1010900060097093A00160939F011092EA0180E0C3
:1010A000E82E80E0F82EEF2809F4D6CD0E9400004B
:1010B000D3CD1092B9011092BA011092BB011092D7
:1010C000BC01E3CE1092A9011092AA011092AB01CB
:1010D0001092AC0154CFEDE0F2E01382128288EE60
:1010E00093E0A0E0B0E084839583A683B7838CE08F
:1010F00091E09183808308955058BB27AA270E94CE
:1011000094080C94450A0E94370A38F00E943E0A5F
:1011100020F039F49F3F19F426F40C94340A0EF4AD
:10112000E095E7FB0C942E0AE92F0E94560A58F32B
:10113000BA17620773078407950720F079F4A6F5BC
:101140000C94780A0EF4E0950B2EBA2FA02D0B010B
:10115000B90190010C01CA01A0011124FF27591BFC
:1011600099F0593F50F4503E68F11A16F040A22F02
:10117000232F342F4427585FF3CF46953795279573
:10118000A795F0405395C9F77EF41F16BA0B620B72
:10119000730B840BBAF09150A1F0FF0FBB1F661FB9
:1011A000771F881FC2F70EC0BA0F621F731F841FFC
:1011B00048F4879577956795B795F7959E3F08F022
:1011C000B0CF9395880F08F09927EE0F97958795E4
:1011D00008950E940A0A08F481E008950E94020915
:1011E0000C94450A0E943E0A58F00E94370A40F0CB
:1011F00029F45F3F29F00C942E0A51110C94790ABE
:101200000C94340A0E94560A68F39923B1F35523CB
:1012100091F3951B550BBB27AA2762177307840709
:1012200038F09F5F5F4F220F331F441FAA1FA9F39F
:1012300035D00E2E3AF0E0E832D091505040E6958D
:10124000001CCAF72BD0FE2F29D0660F771F881FEE
:10125000BB1F261737074807AB07B0E809F0BB0BE1
:10126000802DBF01FF2793585F4F3AF09E3F5105F5
:1012700078F00C942E0A0C94790A5F3FE4F3983EC0
:10128000D4F3869577956795B795F7959F5FC9F7DE
:10129000880F911D9695879597F90895E1E0660F5F
:1012A000771F881FBB1F621773078407BA0720F0D8
:1012B000621B730B840BBA0BEE1F88F7E095089541
:1012C0000E945E0A88F09F5798F0B92F9927B7516E
:1012D000B0F0E1F0660F771F881F991F1AF0BA95DA
:1012E000C9F714C0B13091F00E94780AB1E00895B6
:1012F0000C94780A672F782F8827B85F39F0B93FA8
:10130000CCF3869577956795B395D9F73EF490958C
:101310008095709561957F4F8F4F9F4F0895E8940A
:1013200009C097FB3EF490958095709561957F4F2D
:101330008F4F9F4F9923A9F0F92F96E9BB279395DB
:10134000F695879577956795B795F111F8CFFAF4EB
:10135000BB0F11F460FF1BC06F5F7F4F8F4F9F4F1C
:1013600016C0882311F096E911C0772321F09EE87A
:10137000872F762F05C0662371F096E8862F70E0E0
:1013800060E02AF09A95660F771F881FDAF7880FBA
:101390009695879597F90895E894F92F96EBFF2392
:1013A00081F0121613061406440B9395F695879553
:1013B0007795679557954040FF23B9F71BC099274C
:1013C0000895882351F49850D2F7872B762F652FF4
:1013D000542F432F322F20E0B1F3121613061406B8
:1013E000440B88233AF09A95440F551F661F771FC8
:1013F000881FCAF755234AF4440F551F11F460FFA4
:1014000004C06F5F7F4F8F4F9F4F880F96958795D2
:1014100097F90895990F0008550FAA0BE0E8FEEF21
:1014200016161706E807F907C0F012161306E407A8
:10143000F50798F0621B730B840B950B39F40A26A1
:1014400061F0232B242B252B21F408950A2609F47F
:10145000A140A6958FEF811D811D089597F99F6783
:1014600080E870E060E008959FEF80EC089500242C
:101470000A941616170618060906089500240A94F9
:1014800012161306140605060895092E0394000C7F
:1014900011F4882352F0BB0F40F4BF2B11F460FF0E
:1014A00004C06F5F7F4F8F4F9F4F089557FD905837
:1014B000440F551F59F05F3F71F04795880F97FB18
:1014C000991F61F09F3F79F08795089512161306D2
:1014D0001406551FF2CF4695F1DF08C01616170601
:1014E0001806991FF1CF8695710561050894089536
:1014F000E894BB2766277727CB0197F908950E94C8
:101500000A0A08F48FEF08950E94970A0C94450A7E
:101510000E94370A38F00E943E0A20F0952311F00D
:101520000C942E0A0C94340A11240C94790A0E940B
:10153000560A70F3959FC1F3950F50E0551F629FB7
:10154000F001729FBB27F00DB11D639FAA27F00D1C
:10155000B11DAA1F649F6627B00DA11D661F829F43
:101560002227B00DA11D621F739FB00DA11D621F28
:10157000839FA00D611D221F749F3327A00D611D45
:10158000231F849F600D211D822F762F6A2F112427
:101590009F5750409AF0F1F088234AF0EE0FFF1F5A
:1015A000BB1F661F771F881F91505040A9F79E3FB1
:1015B000510580F00C942E0A0C94790A5F3FE4F3F5
:1015C000983ED4F3869577956795B795F795E79507
:1015D0009F5FC1F7FE2B880F911D9695879597F910
:1015E00008952A193B094C095D096E097F09800B92
:1015F000910B08950024A7FD00942A17300540059B
:10160000500560057005800590050895EE0FFF1FD9
:0C1610000590F491E02D0994F894FFCFB0
:10161C00A402A402A4880C3D000000000C030103EA
:0A162C005703EA02FA028700EB02FE
:00000001FF
