:100000000C94AF000C94D7000C94D7000C94D7003C
:100010000C94D7000C94D7000C94D7000C94D70004
:100020000C94D7000C94D7000C94D7000C94D700F4
:100030000C94D7000C94D7000C94D7000C94D700E4
:100040000C9460100C94D7000C942E100C94081093
:100050000C94D7000C94D7000C94D7000C94D700C4
:100060000C94AA100C94D70007634236B79BD8A70C
:100070001A39685618AEBAAB558C1D3CB7CC5763CD
:10008000BD6DEDFD753EF6177231BF000000803F7B
:1000900008000000BE922449123EABAAAA2ABECD97
:1000A000CCCC4C3E00000080BEABAAAAAA3E000009
:1000B0000000BF000000803F000000000008417801
:1000C000D3BB4387D1133D190E3CC3BD4282AD2B38
:1000D0003E68EC8276BED98FE1A93E4C80EFFFBE30
:1000E00001C4FF7F3F0000000000638253630001F2
:1000F00008000604000100000000240027002A0078
:10010000450000820000400020000000002300267F
:10011000002900000000080002010000030407009D
:1001200000000000000000010204081020408001CF
:10013000020408102001020408102000000000251D
:100140000028002B00040404040404040402020236
:1001500002020203030303030300C911081D112453
:100160001FBECFEFD8E0DEBFCDBF11E0A0E0B1E011
:10017000E2EFF6E402C005900D92A037B107D9F77F
:1001800026E0A0E7B1E001C01D92AC36B207E1F76E
:1001900010E0CEEAD0E004C02197FE010E941A21AF
:1001A000CD3AD107C9F70E9488120C946C230C94A5
:1001B0000000E0914F06F09150068E179F0798F5CA
:1001C00030915406332361F0639FB0011124672FEF
:1001D000349FA0011124452F329F90011124232F19
:1001E00030915A06E0915506F09156065091570607
:1001F00035131AC0DC01AA0FBB1F8A0F9B1F8E0F7D
:100200009F1FE0915706E80FF92FF11D6083E091E1
:100210005806E80FF92FF11D408330915906830FDE
:10022000911DFC0120830895880F991F880F991F45
:100230008E0F9F1FFC01E30FF11D1082E2CFE091B2
:100240005A06209155063091560640915706E41300
:100250001AC0AC01440F551F840F951F820F931FC6
:10026000E0915706E80FF92FF11D1082E091580632
:10027000E80FF92FF11D108220915906820F911D70
:10028000FC0110820895880F991F880F991F820F13
:10029000931FE80FF92FF11D1082E2CFCF93DF9368
:1002A000209130052223C1F0FC0120812223A1F0FE
:1002B000C0E3D5E0ACE2B5E09C012C5F3F4F8991F3
:1002C00041919D918427892339F4E217F307B9F707
:1002D00081E0DF91CF91089580E0FBCFAF92BF9294
:1002E000CF92DF92EF92FF920F931F93CF93DF9302
:1002F0006C017B018B01040F151FEB015E01AE1831
:10030000BF08C017D10759F06991D601ED91FC9152
:100310000190F081E02DC6010995892B79F7C5017F
:10032000DF91CF911F910F91FF90EF90DF90CF90D1
:10033000BF90AF90089508950895FC01538D448DAA
:10034000252F30E0842F90E0821B930B541710F080
:10035000CF96089501970895FC01918D828D98178D
:1003600061F0A28DAE0FBF2FB11D5D968C91928D65
:100370009F5F9F73928F90E008958FEF9FEF089596
:10038000FC01918D828D981731F0828DE80FF11D5F
:10039000858D90E008958FEF9FEF0895FC01918D7A
:1003A000228D892F90E0805C9F4F821B91098F7373
:1003B0009927089584EA95E00E94CE0121E0892BD7
:1003C00009F420E0822F089580E090E0892B29F045
:1003D0000E94DA0181110C9400000895FC01A48DA3
:1003E000A80FB92FB11DA35ABF4F2C91848D90E057
:1003F00001968F739927848FA689B7892C93A0893A
:10040000B1898C91837080648C93938D848D9813C3
:1004100006C00288F389E02D80818F7D8083089556
:10042000EF92FF920F931F93CF93DF93EC0181E044
:10043000888F9B8D8C8D98131AC0E889F9898081EB
:1004400085FF15C09FB7F894EE89FF896083E8891E
:10045000F98980818370806480839FBF81E090E010
:10046000DF91CF911F910F91FF90EF900895F62E9D
:100470000B8D10E00F5F1F4F0F731127E02E8C8D37
:100480008E110CC00FB607FCFACFE889F98980817C
:1004900085FFF5CFCE010E94EE01F1CFEB8DEC0F81
:1004A000FD2FF11DE35AFF4FF0829FB7F8940B8F99
:1004B000EA89FB8980818062CFCFCF93DF93EC0103
:1004C000888D8823B9F0AA89BB89E889F9898C913C
:1004D00085FD03C0808186FD0DC00FB607FCF7CFF8
:1004E0008C9185FFF2CF808185FFEDCFCE010E94F8
:1004F000EE01E9CFDF91CF910895833081F028F4A8
:10050000813099F08230A9F008958730A9F08830C1
:10051000C9F08430B1F4809180008F7D03C0809158
:1005200080008F7780938000089584B58F7784BD95
:10053000089584B58F7DFBCF8091B0008F77809335
:10054000B00008958091B0008F7DF9CFCF93DF93F5
:10055000ECE1F1E08491E0E3F1E0D491EEE4F1E04C
:10056000C491CC23A1F081110E947D02EC2FF0E018
:10057000EE0FFF1FE75FFE4FA591B491EC91ED23C5
:1005800081E090E009F480E0DF91CF91089580E070
:1005900090E0FACF1F93CF93DF93282F30E0F9013B
:1005A000ED5EFE4F8491F901E95DFE4FD491F901B2
:1005B000EB5BFE4FC491CC23A9F0162F81110E9452
:1005C0007D02EC2FF0E0EE0FFF1FE55CFE4FA591E2
:1005D000B4918FB7F894EC91111108C0D095DE2337
:1005E000DC938FBFDF91CF911F910895DE2BF8CF61
:1005F000CF93DF9390E0FC01E95DFE4F24918B5B8C
:100600009E4FFC0184918823D1F090E0880F991FC0
:10061000FC01EA50FF4FA591B491FC01E55CFE4F4F
:10062000C591D49161110EC09FB7F8948C91E22FBF
:10063000E0958E238C932881E223E8839FBFDF918E
:10064000CF9108958FB7F894EC91E22BEC938FBF84
:10065000F6CF3FB7F8948091450290914602A09161
:100660004702B091480226B5A89B05C02F3F19F05C
:100670000196A11DB11D3FBFBA2FA92F982F882722
:10068000BC01CD01620F711D811D911D42E0660FFD
:10069000771F881F991F4A95D1F708950F931F93CD
:1006A000CF93DF93CDB7DEB729970FB6F894DEBFAF
:1006B0000FBECDBF8091550690915606892B09F447
:1006C00067C00E94290300915B0610915C0620918F
:1006D0005D0630915E06601B710B820B930B6C32D2
:1006E00071408105910568F3F894809151069091CD
:1006F00052069A838983E0915506F0915606DF01F0
:1007000011968081898790914D06E0915F06F09166
:10071000600680916106992309F445C09081982B69
:1007200098879081809589238F838F818C8388E03F
:100730008B8358856F8149853B812C8189819A8182
:10074000508347FD252F3A952083262F39F0441FEB
:1007500000C000006083000000C0F2CF38E04D917F
:1007600060830000019761F7F0936006E0935F06F5
:1007700049873B832C839A83898378940E94290339
:1007800060935B0670935C0680935D0690935E06B3
:1007900029960FB6F894DEBF0FBECDBFDF91CF9183
:1007A0001F910F9108959081982B98879081809543
:1007B00089238F838F818E8388E08D8358856F8115
:1007C00049853D812E8189819A81508347FD252F5E
:1007D00000C000C0208300C000C000C000C000C036
:1007E00060830000262F3A9541F0441F000000C0AE
:1007F00000C000C000C000C0E8CF38E04D9100C08C
:10080000608300C0019709F7F0936006E0935F06EC
:1008100049873D832E83AFCF8F929F92AF92BF9235
:10082000CF92DF92EF92FF924B015C010E9429036D
:100830006B017C010E9429036C197D098E099F09B7
:10084000683E734081059105A8F321E0821A910862
:10085000A108B10888EEC80E83E0D81EE11CF11C87
:1008600081149104A104B10429F7FF90EF90DF9067
:10087000CF90BF90AF909F908F9008952FB7F8942E
:100880006091410270914202809143029091440232
:100890002FBF0895809114039091150398278927FD
:1008A000982744972091320330E044E0359527950E
:1008B0004A95E1F7220F331F220F331F821B930B40
:1008C00097FF02C090E080E00895209128033091C6
:1008D0002603309328032093260320912903309187
:1008E00027033093290320932703E4E0F3E021A5B5
:1008F000820F911D25A585A7662381F021A7892F49
:100900009927319723E0E030F20789F710923603F8
:100910001092370380E580933203089511A6EFCF3C
:100920000F931F93CF93DF9370E06C5F7C4F8A012E
:10093000075F1F4F213029F0223031F48A01025025
:10094000110930E020E003C000E010E09801EB0165
:10095000FA01E230F10558F0A991B991BA27AB2715
:10096000BA270A0F1B1F211D311D3297F2CFFA0142
:10097000EE7F6E0F7F1F4E175F0769F0FB0140810E
:1009800050E070E060E0762F652F542F4427040F6D
:10099000151F261F371FA901662777274115510507
:1009A0006105710519F022273327F1CF00951095C5
:1009B000E82FF0E0EC5FFC4F10830183DF91CF91D3
:1009C0001F910F910895E4E0F3E0108E118E80E402
:1009D000848B158A868B20E044E150E06EE088E14C
:1009E0000C9490048EBD0DB407FEFDCF089561E018
:1009F00080914D020E94CA0278940895F89460E0B4
:100A000080914D020C94CA020F931F93CF93DF93F2
:100A1000EC018B010E94FE042097B9F08AE30E944A
:100A2000F2041EBCF801CE01019739F00DB407FEA7
:100A3000FDCF2EB51EBC2193F7CF2197C00FD11F3C
:100A40000DB407FEFDCF8EB58883DF91CF911F9146
:100A50000F910C94F7041F93CF93DF93182FC62F99
:100A6000D42F0E94FE048C2F8F71812B0E94F204E0
:100A70008D2F0E94F204DF91CF911F910C94F70407
:100A8000CF93C82FC07680913F028C1799F043E036
:100A90006FE180EA0E942B05C0933F024C2F50E08B
:100AA00085E0559547958A95E1F76FE180E8CF910C
:100AB0000C942B05CF910895CF93DF93C82FD62F99
:100AC0000E9440054D2F6C2F80E4DF91CF910C9454
:100AD0002B05CF93DF93C82FD72F0E945C056D2F76
:100AE00081E08C0FDF91CF910C945C05CF93C82FE0
:100AF0000E9440050E94FE048C2F8F710E94F20418
:100B000080E00E94F204C7FF03C080E00E94F2046C
:100B1000CEB50E94F7048C2FCF910895CF93DF9329
:100B2000EC0140E86FE180E80E942B0540E86FE1AE
:100B300080EA0E942B054AE06CE180EA0E942B05C6
:100B400060E07CE082E00E946905BE01745F86E09F
:100B50000E94690540E060E08AE70E942B050E9440
:100B6000FE042097B1F08AE70E94F204809104030A
:100B70008EBDE5E0F3E0CC5FDC4FEC17FD0731F014
:100B800081910DB407FEFDCF8EBDF7CF0DB407FEEA
:100B9000FDCF0E94F70448E06FE180E80E942B053A
:100BA000D0E0C0E08CE10E9476058A7029F421969D
:100BB000C83E83E0D807B1F78CE10E94760581FD3D
:100BC00003C0C83ED34039F448E06FE180EADF91CA
:100BD000CF910C942B05DF91CF910895CF93DF93A4
:100BE000EB01682F84ED0E945C05BE0186ED0E943A
:100BF00069058AEE0E94760580FDFBCFDF91CF91DB
:100C00000895CF92DF92EF92FF920F931F93863455
:100C1000910568F120912703233449F5C0903203F0
:100C2000D0903303E0903403F090350300918702B5
:100C3000109188022091890230918A02C016D10653
:100C4000E206F306A1F4EEE1F4E08C5F9C4F9F0115
:100C50002E5F3F4F41815081553319F45281651702
:100C600071F0F901E40FF11DE817F90780F380E056
:100C70001F910F91FF90EF90DF90CF90089581E04A
:100C8000F7CFE0913D02F0913E029F012F5F3F4F71
:100C900030933E0220933D0280830895FF920F938C
:100CA0001F93CF93DF93162FF42E052F0E9441063A
:100CB000812F0E944106CF2DD02F115020F0899115
:100CC0000E944106FACFDF91CF911F910F91FF90C3
:100CD000089520911A02260F3327331F2132310540
:100CE000ECF420917A05FC0190E080E0243069F07A
:100CF00082E00895A0911A022191AC0146505E4F06
:100D0000A40FB52FB11D2C930196861798F38091EF
:100D10001A02680F60931A0280E0089581E0089536
:100D200010927A0581E0809379051092540561E074
:100D300082E10E94CA0261E083E10E94CA02E9EBFB
:100D4000F0E080818E7F808380818D7F808388E446
:100D50008093B80085E48093BC000895CF93DF931F
:100D600091E09093F9018823B9F0C091B800D09137
:100D7000BA008091BC008A7B8093BC0060E082E175
:100D80000E94CA0260E083E10E94CA020E949006AB
:100D9000D093BA00C093B800DF91CF910895CF925D
:100DA000DF92EF92FF920F931F93CF93DF93D09137
:100DB000A30581E0D13208F09CC0C091A2050E9439
:100DC00029036B017C0180917A0581116CC082E05E
:100DD00080937A0581E0809379058FEF8093780581
:100DE00010927705D0937605A2E8B5E0E6E5F5E048
:100DF00080E0D8138DC01092550580915505CC0F19
:100E0000C82BC093550580915405813009F084C0EA
:100E1000109254050E9429036B017C0180915505B5
:100E20008093BB0080917C0590917D05A0917E050B
:100E3000B0917F05892B8A2B8B2BA1F00E9429036F
:100E400000917C0510917D0520917E0530917F05F4
:100E50006C197D098E099F0906171707280739079E
:100E600008F442C08091BC0083FDD8CF85EC80930C
:100E7000BC000E9429036B017C0180917A058230BD
:100E800009F44CC0809178058F3F09F469C08091C6
:100E90007805803209F466C080917805803309F4C2
:100EA00063C084E026C080917C0590917D05A0916F
:100EB0007E05B0917F05892B8A2B8B2B09F483CF7C
:100EC0000E94290300917C0510917D0520917E05EB
:100ED00030917F056C197D098E099F090617170748
:100EE0002807390708F06FCF80917B050E94AE0676
:100EF00085E0109281051092A30510928005DF9184
:100F0000CF911F910F91FF90EF90DF90CF900895B8
:100F10009D9191938F5F6DCF85EEA9CF80917C05D8
:100F200090917D05A0917E05B0917F05892B8A2B3C
:100F30008B2B09F4A2CF0E94290300917C0510910C
:100F40007D0520917E0530917F056C197D098E0904
:100F50009F09061717072807390708F08ECFC4CF57
:100F600080E0C7CF82E0C5CF83E0C3CFCF92DF92CE
:100F7000EF92FF920F931F93CF93C82F813208F007
:100F800096C00E9429036B017C0180917A05811132
:100F900069C081E080937A05809379059FEF9093F3
:100FA0007805109277059C0F9093760580935505F0
:100FB000809155058E6E8093550580915405813042
:100FC00009F077C0109254050E9429036B017C013F
:100FD000809155058093BB0080917C0590917D05A3
:100FE000A0917E05B0917F05892B8A2B8B2BA1F0D8
:100FF0000E94290300917C0510917D0520917E05BA
:1010000030917F056C197D098E099F090617170716
:101010002807390708F447C08091BC0083FDD8CF6A
:1010200085EC8093BC000E9429036B017C018091B8
:101030007A05813009F43FC0809177058C1710F450
:10104000C0917705A6E5B5E0E4E3F5E080E08C1318
:1010500054C08C2FCF911F910F91FF90EF90DF9094
:10106000CF90089580917C0590917D05A0917E059B
:10107000B0917F05892B8A2B8B2B09F486CF0E9498
:10108000290300917C0510917D0520917E0530910A
:101090007F056C197D098E099F0906171707280718
:1010A000390708F072CF80917B050E94AE06C0E040
:1010B000D0CF85EEB6CF80917C0590917D05A09133
:1010C0007E05B0917F05892B8A2B8B2B09F4AFCF3E
:1010D0000E94290300917C0510917D0520917E05D9
:1010E00030917F056C197D098E099F090617170736
:1010F0002807390708F09BCFD6CF9D9191938F5F3A
:10110000A6CF0895E091560280915502E81730F479
:10111000F0E0EC5CFA4F808190E008958FEF9FEF54
:10112000089590915602809155022FEF3FEF981746
:1011300048F4E92FF0E0EC5CFA4F208130E09F5F4B
:1011400090935602C90108958091550290915602DC
:10115000891B990B0895CF92DF92EF92FF920F9324
:101160001F93CF93DF937C01CB018A0120918005EF
:10117000222389F0EB016B01C40ED51ECC15DD05D1
:1011800069F06991D701ED91FC910190F081E02D1A
:10119000C7010995F3CF642F0E946906C801DF914A
:1011A000CF911F910F91FF90EF90DF90CF90089516
:1011B000CF93DF931F92CDB7DEB76983209180056F
:1011C0002223F9F02091A305203258F021E030E0ED
:1011D000FC013383228390E080E00F90DF91CF9178
:1011E000089580918105E82FF0E0EE57FA4F99813C
:1011F00090838F5F809381058093A30581E090E0C9
:10120000ECCF61E0CE0101960E946906F7CF682F0E
:1012100081E496E00C94D80890E080E00895EF9285
:10122000FF920F931F93CF93DF931092F9041092C4
:10123000F8044091EE018091F5019091ED015091FB
:10124000EC01E0900303F0900003709102036091C1
:101250002205F901E901C00FD11FEC17FD0729F1A3
:101260002191A82FB0E0A151BE4F2C934E3E91F496
:101270002F3E81F48091EF012091F0013091F10136
:10128000932F922798275091F201951749F080E00B
:1012900053E0E3CF8F5F422F8630F8F280E0DDCF5E
:1012A000732FF22EE82E61E0F2CF5093EC01909371
:1012B000ED018093F5014093EE011093F904009342
:1012C000F804E0920303F09200037093020360932A
:1012D0002205DF91CF911F910F91FF90EF9008951C
:1012E0002F923F924F925F926F927F928F929F9236
:1012F000AF92BF92CF92DF92EF92FF920F931F9324
:10130000CF93DF93CDB7DEB762970FB6F894DEBF09
:101310000FBECDBF9091EB019F5F9093EB01913099
:1013200009F0A1C09090EA019110CBC28090E50134
:1013300024E0829E800111240F521E4FC090E601CE
:10134000D090E701E090E801F090E901F8014081D8
:10135000518162817381C41AD50AE60AF70A909313
:10136000800587E78093A205109281051092A3055E
:1013700090E080E00E9407090E94CF0683E00E946F
:10138000B607109256028093550281E496E00E94BF
:1013900091089A83898381E496E00E9491082C0148
:1013A00081E496E00E949108A980BA80A501BB0C57
:1013B000660B770B762F652F542F4427052C000CD6
:1013C00066087708440D551D661D771D762F652F1D
:1013D000542F4427092E000CAA0BBB0B840F951F1A
:1013E000A61FB71FF80180839183A283B383BC013A
:1013F000CD016C0D7D1D8E1D9F1D6093E6017093C8
:10140000E7018093E8019093E90121E0280D253060
:1014100009F454C22093E50125E030E040E050E0BB
:101420000E94F8202093CD013093CE014093CF014C
:101430005093D00181E0890D8093EA01843109F055
:101440008DC21092EA0181E08093800587E7809346
:10145000A205109281051092A30588E590E00E94F4
:1014600007090E94CF068091EB01823009F093C2F8
:101470008091790290917A02B0E0A0E0BA2FA92F72
:10148000982F88274090CD015090CE016090CF01D9
:101490007090D001481A590A6A0A7B0A9090C401D8
:1014A00004E0909E60011124DA86C986F601EC58AA
:1014B000FE4F4091C5015091C6016091C7017091E6
:1014C000C80180819181A281B3815A016B01A81A60
:1014D000B90ACA0ADB0AAB86BC86CD86DE86609175
:1014E00075027091760290E080E0A30192010E9463
:1014F0008A21122F3F874983B52FF62FE72FF82E29
:10150000092FA0E00E94182284F421503F4F4F4F32
:101510005F4F6F4F7F4F8F4F9F4F122F3F874983F2
:10152000B52FF62FE72FF82E092F212F3F85498160
:101530005B2F6F2F7E2F8F2D902F08E00E94DD21D3
:10154000A0905F02B0906002C0906102D0906202F1
:10155000E0906302F09064020091650210916602CF
:101560000E94FA21C090C901D090CA01E090CB013D
:10157000F090CC0156016701E12CF12C8701A98282
:10158000BA82CB82DC82ED82FE820F831887E12C47
:10159000F12C00E010E00E943221122F3F87498396
:1015A000B52FF62FE72FF82E092FA0E00E94182262
:1015B00084F421503109404E5F4F6F4F7F4F8F4F62
:1015C0009F4F122F3F874983B52FF62FE72FF82E15
:1015D000092F212F3F8549815B2F6F2F7E2F8F2D64
:1015E000902F05E10E94DD211901842E59836A8B19
:1015F000798B8F87988B609177027091780290E059
:1016000080E0A30192010E948A21522E632E742E43
:10161000B52FF62FE72F182F492EA0E00E94182291
:101620005CF4AFE70E940322522E632E742EB52F76
:10163000F62FE72F182F492E252D362D472D5B2FFE
:101640006F2F7E2F812F942D07E00E94DD21A09027
:101650006702B0906802C0906902D0906A02E09080
:101660006B02F0906C0200916D0210916E020E946C
:10167000FA2159016A017B018C019101482D5981A0
:101680006A8979898F8598890E940F22122F3F8756
:101690004983B52FF62FE72FF82E092FA0E00E94DF
:1016A000182284F4215030484F4F5F4F6F4F7F4FC7
:1016B0008F4F9F4F122F3F874983B52FF62FE72F6C
:1016C000F82E092F212F3F8549815B2F6F2F7E2F09
:1016D0008F2D902F0FE00E94DD21C901DA01E985ED
:1016E000FA85EC58FE4F80839183A283B383EB8409
:1016F000FC840D851E85E80EF91E0A1F1B1FC801FC
:10170000B7016093C5017093C6018093C7019093A0
:10171000C80121E0290D243109F42DC12093C40111
:101720000E943D1E20E030E040EA51E40E94931DFB
:101730004B015C0180925B0290925C02A0925D0280
:10174000B0925E0226EF38E24CE75FE36091570209
:10175000709158028091590290915A020E94F21E93
:101760006B017C012FE832EC45E75CE3C501B40175
:101770000E94F21E9B01AC01C701B6010E94221D0E
:101780006B017C01C0925702D0925802E09259023C
:10179000F0925A02A50194010E94211D4B015C01A7
:1017A00020E030E040E051E40E94ED1E18160CF4F9
:1017B000E5C08092700190927101A0927201B09286
:1017C000730120E030E040E051EC609170017091D5
:1017D000710180917201909173010E948E1D87FFAB
:1017E0000CC080E090E0A0E0B1EC80937001909399
:1017F0007101A0937201B093730180907001909079
:101800007101A0907201B090730120E030E040E8D7
:101810005FE3C501B4010E94ED1E181654F020E0EC
:1018200030E040E85FEBC501B4010E948E1D87FFE8
:1018300016C020E030E040EC50E4C501B4010E9445
:10184000931D9B01AC01C701B6010E94211D60934D
:101850005702709358028093590290935A0220E0E5
:1018600030E040E452E46091570270915802809158
:10187000590290915A020E94221D6093FB047093BA
:10188000FC048093FD049093FE0462960FB6F894D6
:10189000DEBF0FBECDBFDF91CF911F910F91FF90A3
:1018A000EF90DF90CF90BF90AF909F908F907F9000
:1018B0006F905F904F903F902F9008951092E501A8
:1018C000ABCD9093800587E78093A20510928105A8
:1018D0001092A30590E080E00E9407090E94CF06C5
:1018E00083E00E94B607109256028093550281E46D
:1018F00096E00E9491088C0181E496E00E94910894
:101900009A83898381E496E00E9491089C01C80132
:10191000110FAA0BBB0BBA2FA92F982F8827A980CC
:10192000BA80A501BB0C660B770B840F951FA61F11
:10193000B71FBA2FA92F982F8827032E000C440B0E
:10194000550B820F931FA41FB51F8093C90190935D
:10195000CA01A093CB01B093CC016CCD81E0809300
:10196000800587E78093A205109281051092A30558
:1019700088E490E074CD1092C401D2CE80E090E073
:10198000A0E0B1E48093700190937101A093720183
:10199000B093730116CF833009F077CF1092EB012B
:1019A00074CF8091010391E0811190E09093010345
:1019B000811117C02FEF40E06FE390E080E00E94BC
:1019C000D9002FEF40E06FE381E090E00E94D90062
:1019D0002FEF40E06FE382E090E00E94D9000C948A
:1019E0004E03409151065091520670E060E08091A4
:1019F0005506909156060E946523F1CFCF938091B2
:101A0000F7019091F80101968F33910530F490938E
:101A1000F8018093F701CF9108951092F801109288
:101A2000F70180912305882361F09091F601282F1A
:101A300030E02D5F3F4F9217130619F014F010920B
:101A4000F601C091F601C81708F5909101039111B4
:101A50001DC08823D9F020E04EE66FEF90E080E0D3
:101A60000E94D90020E04EE66FEF81E090E00E94F6
:101A7000D90020E04EE66FEF82E090E00E94D900AE
:101A800081E080930103CF910C944E034091510665
:101A90005091520670E060E0809155069091560694
:101AA0000E94652310920103CF5FC093F601EBCF34
:101AB0008F929F92AF92BF92EF92FF920F931F93DC
:101AC000CF93DF93CDB7DEB7A1970FB6F894DEBF03
:101AD0000FBECDBF7C01FA01CB0119A2223008F460
:101AE0002AE08E010F5D1F4F822E912CB12CA12C6C
:101AF000BF01A50194010E94F820F901CA016A30D2
:101B000074F5605DD8016E938D01232B242B252B5A
:101B100079F790E080E0109789F0FD0101900020B6
:101B2000E9F73197AF014A1B5B0BD701ED91FC91AF
:101B30000280F381E02DB801C7010995A1960FB687
:101B4000F894DEBF0FBECDBFDF91CF911F910F91F3
:101B5000FF90EF90BF90AF909F908F900895695C39
:101B6000D1CF8F929F92AF92BF92CF92DF92EF929E
:101B7000FF920F931F93CF93DF937C01EB016C01D6
:101B800082E0C80ED11C4701E5E08E0E911C10E0EA
:101B900000E0F60141916F0150E070E060E02AE062
:101BA000CE010E94580D5C01E881F9810190F0811D
:101BB000E02D6EE2CE0109958A0D9B1D080F191FBD
:101BC000C814D90431F7F701458150E070E060E0B6
:101BD0002AE0CE010E94580D800F911FDF91CF9116
:101BE0001F910F91FF90EF90DF90CF90BF90AF903B
:101BF0009F908F900895DC0196E0FB0101900D927B
:101C00009A95E1F70895BC0184E093E00E94FB0DF2
:101C100068E972E08AE093E00C94FB0DDC0194E04B
:101C2000FB0101900D929A95E1F708958AE093E007
:101C30000E94030E6EE173E082E293E00E940E0EBA
:101C400060E375E08EE193E00E940E0E0C94E304D5
:101C5000262F206120933303643021F0009711F484
:101C600081E090E061E00E9465041092140388E234
:101C7000809315030E94160E84E080933403109223
:101C8000350322E04CE150E06AE182E30E949004D7
:101C900086E390E00C948E05CF93DF93EB010E94D6
:101CA000030EBE0182E293E00E940E0E60E375E037
:101CB0008EE193E0DF91CF910C940E0ECF93DF93E2
:101CC000EB0144E050E0BC0180E293E00E94582325
:101CD000892B49F46AE173E0CE010E94FB0D81E09B
:101CE000DF91CF91089580E0FBCF0F931F93CF93A7
:101CF0008C0180E491E00E94030EE4E0F3E088E0D0
:101D00008487C6E0C58748E050E06EEE70E082E16F
:101D100093E00E94181DE4E2F3E0DF011D92CA95F2
:101D2000E9F768E972E08AE193E00E94FB0DB801EF
:101D30008AE293E00E940E0E60E375E080E293E099
:101D40000E940E0E8AE290E0CF911F910F910C94A9
:101D50008E05EF92FF920F931F93CF93DF938C0129
:101D6000E4E0F3E086E191E0DF019C011D92215067
:101D70003040E1F780919702C0E4D1E0833011F464
:101D8000C2E8D2E0CE010E944E01BE01882309F4D0
:101D9000ACC08BEC92E00E944C0E8881807F803E2C
:101DA00091F088819981AA81BB818F3F9F4FAF4F6E
:101DB000BF4F49F044E050E0BE018EE992E00E943E
:101DC0005823892B31F460E471E084E093E00E94B1
:101DD000FB0D88E0809310031092110349E050E05E
:101DE00060E071E082E193E00E94181D10921403FC
:101DF00081E180931B031092280383E480932903DD
:101E00001092260384E48093270310922A031092F1
:101E10002C0310922D0360E471E084E093E00E94B3
:101E2000FB0D81E080932E0380932F0386E0809347
:101E300030038091870290918802A0918902B0912D
:101E40008A028093320390933303A0933403B093B8
:101E50003503C0919702C33031F460E375E08AE343
:101E600093E00E940E0E68E972E08AE493E00E941B
:101E7000FB0D8AE194E090933E0280933D02EAEEEE
:101E8000F0E084910E944106EBEEF0E084910E9424
:101E90004106ECEEF0E084910E944106EDEEF0E0A8
:101EA00084910E94410685E30E94410681E00E94E0
:101EB000410683E0C11101C081E00E9441068DE32B
:101EC0000E94410687E00E94410681E00E9441068F
:101ED00088E9E82E82E0F82EC7E0C15049F0D7012A
:101EE0008D917D010E944106F8CF81ED92E053CFA4
:101EF00080910001882371F060E071E0FB010190A6
:101F00000020E9F7BF016150714040E051E08CE0F2
:101F10000E944E060115110559F0A80164E082E304
:101F20000E944E0642E852E064E086E30E944E06BC
:101F300087E30E94410683E00E94410681E00E94FF
:101F4000410683E00E94410686E00E9441068FEF31
:101F50000E944106C0913D02D0913E02CE52D34034
:101F6000CE014C9690931403809315030E94E304D2
:101F7000CE01089690932A0380932B03AE01405F15
:101F80005F4F21E06AE188E20E949004CE018A96C8
:101F9000DF91CF911F910F91FF90EF900C948E05E0
:101FA00085ED8093BC0080917C0590917D05A0918A
:101FB0007E05B0917F050796A11DB11D23E0B69562
:101FC000A795979587952A95D1F72091BC0024FD78
:101FD00003C010927A05089540917C0550917D05CB
:101FE00060917E0570917F05452B462B472B69F349
:101FF0000097A105B10541F025E32A95F1F700000E
:102000000197A109B109E1CF80917B050C94AE063F
:102010001F920F920FB60F9211242F933F934F935D
:102020005F936F937F938F939F93AF93BF93EF9340
:10203000FF9384EA95E00E94EE01FF91EF91BF913A
:10204000AF919F918F917F916F915F914F913F9150
:102050002F910F900FBE0F901F9018951F920F9207
:102060000FB60F9211242F938F939F93EF93FF93AB
:10207000E091B405F091B5058081E091BA05F09149
:10208000BB0582FD1BC090818091BD058F5F8F7362
:102090002091BE05821741F0E091BD05F0E0EC55BE
:1020A000FA4F958F8093BD05FF91EF919F918F918E
:1020B0002F910F900FBE0F901F9018958081F4CF35
:1020C0001F920F920FB60F9211242F933F938F936D
:1020D0009F93AF93BF938091410290914202A09150
:1020E0004302B09144023091400223E0230F2D3788
:1020F00058F50196A11DB11D209340028093410225
:1021000090934202A0934302B0934402809145020F
:1021100090914602A0914702B09148020196A11DFC
:10212000B11D8093450290934602A0934702B0935D
:102130004802BF91AF919F918F913F912F910F9046
:102140000FBE0F901F90189526E8230F0296A11D31
:10215000B11DD2CF1F920F920FB60F9211242F9361
:102160003F934F935F936F937F938F939F93AF931F
:10217000BF93EF93FF938091B900887F803609F475
:102180004AC0F0F5883209F4A7C018F5803109F487
:102190009BC0B8F4882309F4F9C0883009F494C0CE
:1021A000FF91EF91BF91AF919F918F917F916F912F
:1021B0005F914F913F912F910F900FBE0F901F9005
:1021C0001895883109F488C0803251F780937805DA
:1021D00014C0803409F49DC040F48033B9F38833CF
:1021E000F9F68093780585ECB0C0803509F485C098
:1021F000883509F496C0883499F60E94D00FD0CF64
:10220000883909F48CC038F5883729F050F48836BD
:1022100011F0803729F683E080937A0510923C0212
:1022200057C0883809F47BC0803919F0803809F02C
:10223000B7CF80913C02803208F071C0E0913C023F
:1022400081E08E0F80933C028091BB00F0E0E45E61
:10225000FD4F80833DC0803B39F0E0F4803A09F4C3
:1022600079C0883A09F09CCF84E080937A05109277
:102270001B0210921A02E0914B02F0914C02099558
:1022800080911A0281110FC081E080931A0210928E
:10229000FA0109C0803C09F4A6CF883C09F4A3CF19
:1022A000883B09F07DCFE0911B0281E08E0F809387
:1022B0001B02F0E0E650FE4F80818093BB009091BE
:1022C0001B0280911A0229C0809155058093BB00A2
:1022D00085EC8093BC0064CF909177058091760562
:1022E000981758F5E091770581E08E0F8093770578
:1022F000F0E0EA5AFA4F8081E9CFE091770581E07A
:102300008E0F809377058091BB00F0E0EA5AFA4F78
:10231000808390917705809176059817C8F285E8BB
:10232000D8CFE091770581E08E0F8093770580917B
:10233000BB00F0E0EA5AFA4F808380917905811161
:102340005CCF81E08093540584EA8093BC001092B6
:102350007A0526CF85EC8093BC0010927A05809197
:102360003C02803230F4E0913C02F0E0E45EFD4F4C
:10237000108260913C0270E0E0914902F0914A02C3
:102380008CE192E0099510923C020ACF10927805F8
:1023900034CF1092A7051092A60588EE93E0A0E036
:1023A000B0E08093A8059093A905A093AA05B093E7
:1023B000AB052AE431E03093A5052093A40525EC74
:1023C00030E03093B1052093B00524EC30E0309339
:1023D000B3052093B20520EC30E03093B50520938F
:1023E000B40521EC30E03093B7052093B60522EC1C
:1023F00030E03093B9052093B80526EC30E03093F7
:10240000BB052093BA051092BD051092BE0510922F
:10241000BF051092C00510924406109243068093A7
:10242000450690934606A0934706B09348068CE570
:1024300091E090934206809341068EE691E090935E
:1024400063068093620610926406109265061092ED
:1024500066061092670610924E061092540610926D
:102460005B0610925C0610925D0610925E0681E09B
:1024700080935A06809357061092580692E09093E4
:10248000590680934D0689E090E090935206809320
:1024900051060E943322909356068093550600976A
:1024A00071F129E0FC0111922A95E9F783E090E0AF
:1024B0009093500680934F0688E080935306809156
:1024C0004E06882341F061E088E00E94F80260E057
:1024D00088E00E94CA02EDE4F1E0E491F0E0EE0F42
:1024E000FF1FE55CFE4F8591949190936006809369
:1024F0005F06EFE2F1E0E491E09361060895109247
:102500005206109251061092500610924F06D4CFE8
:10251000CF93DF93CDB7DEB72A970FB6F894DEBF1F
:102520000FBECDBF789484B5826084BD84B58160D0
:1025300084BD85B5826085BD85B5816085BD80918E
:102540006E00816080936E00109281008091810006
:1025500082608093810080918100816080938100FE
:10256000809180008160809380008091B1008460C0
:102570008093B1008091B00081608093B000809121
:102580007A00846080937A0080917A0082608093E0
:102590007A0080917A00816080937A0080917A003D
:1025A000806880937A001092C1008EEE809320059F
:1025B0008FEE8093210561E080E10E94F80261E0E6
:1025C00083E00E94F80260E083E00E94CA0260E0BB
:1025D00080E10E94CA0261E081E10E94F80261E0AC
:1025E00081E10E94CA0261E088E00E94F80261E095
:1025F00089E00E94F8028091530687FD08C061E0DF
:102600000E94F80260E0809153060E94CA0281E0B5
:1026100080934E06409151065091520670E060E062
:1026200080915506909156060E9465230E944E03A4
:102630001092560210925502109281051092A30535
:102640000E9490068BE991E090934C0280934B029C
:102650008CE991E090934A028093490268EC70E023
:1026600080E090E00E940C041092EB0287E390E07F
:10267000812C912C540183940097C1F0FC0153E00C
:10268000F595E7955A95E1F7E25BFD4F282F277006
:10269000B501A40104C0440F551F661F771F2A957A
:1026A000D2F72081242B20830197E6CF60E371E0ED
:1026B00088E992E00E94FB0D84EF91E090937E0206
:1026C00080937D020CB406FC25C061E08AE00E9484
:1026D000F80261E08AE00E94CA0261E08BE00E9499
:1026E000F80261E08DE00E94F80260E08CE00E9458
:1026F000F80261E08BE00E94CA0260E08BE00E9479
:10270000CA0260E08DE00E94CA0280E58CBD8DB5F2
:1027100081608DBD8AE080934D0261E00E94F802E5
:102720000E94F7044FEF60E08FEF0E942B0562E0FC
:1027300070E080E090E00E940C040E94FE048DE1B5
:102740000E94F20480E00E94F2041EB50E94F70489
:10275000112399F370E060E088E00E94690570E061
:1027600060E08CE00E9469056FEF7BE08AE00E94E8
:10277000690560E07CE084E00E9469056FEF71E12B
:1027800086E00E94690566E774E084E10E94EE0538
:1027900061EB88E30E945C056FE370E388E20E94CE
:1027A000690569EF77EF80E30E94690561E080ECDD
:1027B0000E945C0542E362EC80E80E942B0562E126
:1027C0007CE086EC0E94690562E184EC0E945C0575
:1027D0006CED75E08AEC0E9469056091980284EEC8
:1027E0000E945C056091990285EE0E945C056091F3
:1027F0009A0282EE0E945C0560919B0283EE0E9429
:102800005C0560919C0280EE0E945C0560919D02D7
:1028100081EE0E945C0560E071E080E10E94EE05BF
:102820008FE10E94400540EC6BE180E80E942B059F
:1028300044E06FE180E80E942B0582E70E94760564
:10284000863008F08F5F81110BC081E080932305F3
:102850000BE71EE30E94FE0CC8010197F1F7FACFC7
:102860001092EB026CE271E080E395E00E940E0EA4
:102870001092E9021092E80281E08093EA0268E295
:1028800071E084EE92E00E940E0E64E271E08FED42
:1028900092E00E940E0E60E271E08CE295E00E94F0
:1028A0000E0EE0E3F5E02CE235E06EE972E044E381
:1028B00055E09191D9018D919D018095892BDB0186
:1028C0008D93BD014E175F07A1F790913005809160
:1028D0002C01981312C09091310580912D0198130D
:1028E0000CC09091320580912E01981306C09091F2
:1028F000330580912F01981759F082E080932305CA
:102900000BE71EE30E94FE0CC8010197F1F7FACF16
:102910008091CA02883098F4B5E08B9FF0011124B1
:10292000EE55FD4F2FE039E03183208328EB32E272
:102930003383228391E094838F5F8093CA0281E086
:102940008093800587E78093A205109281051092FD
:10295000A3050E94CF068093230543E0D42E0BE706
:102960001EE380912305882341F0D09223050E9425
:10297000FE0CC8010197F1F7F4CF81E08093800548
:10298000109281051092A3058EE190E00E94070944
:102990000E94CF0664E670E080E090E00E940C04A4
:1029A00081E090E09093F9048093F804CC24C394E0
:1029B00037E7D32E0091F8041091F9040730110580
:1029C000A8F5C0928005D092A205109281051092C0
:1029D000A305B801605B7F4F660F771F81E496E027
:1029E0000E94D8080E94CF0682E00E94B60710928B
:1029F00056028093550281E496E00E949108B82E19
:102A000081E496E00E949108F801EE0FFF1FE15962
:102A1000FD4FFB2CE12C8E0D9F1D918380830F5F5A
:102A20001F4F1093F9040093F804C4CF80907302F1
:102A300090907402940140E050E060E070E080E02B
:102A400090E000E10E94C421209367023093680265
:102A50004093690250936A0260936B0270936C0218
:102A600080936D0290936E0280907102909072023A
:102A7000B12CA12C9401A50160E070E080E090E011
:102A80000FE00E94C42120935F02309360024093C4
:102A900061025093620260936302709364028093B8
:102AA0006502909366021092F9041092F804B2E362
:102AB000CB2ED12C1BE7E12E1EE3F12E0091F80462
:102AC0001091F904043FE1E01E07A0F40E94700990
:102AD000C801B6010E94E420892B11F40E94D10C98
:102AE000C7010197F1F70F5F1F4F1093F90400938F
:102AF000F804E4CF60915B0270915C0280915D020A
:102B000090915E026093570270935802809359022D
:102B100090935A0220E030E040E452E40E94221DEB
:102B20006093FB047093FC048093FD049093FE0477
:102B30001092F9041092F804F2E3CF2ED12CABE7F7
:102B4000EA2EAEE3FA2E0091F8041091F90404364F
:102B50001105A0F40E947009C801B6010E94E4208A
:102B6000892B11F40E94D10CC7010197F1F70F5F77
:102B70001F4F1093F9040093F804E5CFE091B405DA
:102B8000F091B50582E08083E091B005F091B10548
:102B90001082E091B205F091B30580E1808310923C
:102BA000BC05E091B805F091B90586E08083E0911D
:102BB000B605F091B705808180618083E091B6050C
:102BC000F091B705808188608083E091B605F0912F
:102BD000B705808180688083E091B605F091B705E4
:102BE00080818F7D808368EC70E080E090E00E94BF
:102BF0000C040E9429038B019C016093240510930F
:102C000025058093260530932705109228051092FC
:102C1000290510922A0510922B0599249394E4E03B
:102C20008E2E80918102882379F060917F027091CD
:102C300080026115710509F05CC16FEF7BE08CE0EB
:102C40000E9469051092810289E30E947605712C29
:102C5000612C8823D1F160917F027091800280E025
:102C60000E946905BE016F5F7F4F86E090E00E9481
:102C7000040589819A819093800280937F028D81DF
:102C80009E813C01F0E86F22772487FF13C08B817F
:102C90009C81049760907D0270907E0221E0621A10
:102CA00071088615970508F43C0164E073E0C301E0
:102CB0000E940405F301EC5FFC4F108290928102A8
:102CC00040E46EE180E80E942B058091EB028823AE
:102CD00069F080919702823009F414C108F00CC1A8
:102CE000882309F495C1813009F4B2C161147104DB
:102CF00009F03FC28091EA02857029F18091E802D3
:102D00009091E902892BF9F461E184ED0E945C0560
:102D100061E082ED0E945C058AEE0E94760580FDEE
:102D2000FBCF60E082ED0E945C0589ED0E94760594
:102D300082FF09C084EE92E00E94750E8091EA0243
:102D400088608093EA028091E8029091E9020196FE
:102D50009093E9028093E8028091E302813009F0C8
:102D60006DC08091EA0281FF69C082E08093E30236
:102D7000809137018F5F80933701182F1F7189ED84
:102D800092E00E944E0169ED72E0882309F4EEC1E1
:102D90008BEC92E00E944C0E08E00093100310921E
:102DA000110349E050E060E071E082E193E00E94AD
:102DB000181DBCE2B093150386E080931B030E94AC
:102DC000E30410922803109229038BE080932603DA
:102DD00010932703EAE2F3E0DF011D920A95E9F779
:102DE0008091360180932C038D5F80933601B0E68D
:102DF000B093320382E080933303E3E0E093340343
:102E00001092350310923603109237031092380354
:102E10001092390380933A0380923B0380933C03E2
:102E200086E280933D0322E040E250E06AE182E3E3
:102E30000E9490048AE390E00E948E058FED92E05C
:102E40000E944E01882371F08091DE0281110AC038
:102E50008091DD02811106C08FED92E00E94750E17
:102E60009092DD0289ED92E00E944E01882371F07C
:102E70008091D80281110AC08091D702811106C0C9
:102E800089ED92E00E94750E9092D70280913801F0
:102E9000909139018F3F980729F00196909339015D
:102EA0008093380118E084EA95E00E94CE01892BD6
:102EB00009F438C384EA95E00E94AC019091FA02CB
:102EC000E92FF0E0E151FD4F80832091EE022E3E8C
:102ED00009F01FC38F3E09F01CC31092FA02EFEEF7
:102EE000F2E080E099E0915009F4D1C2219182276B
:102EF000FACF61507109A3CE833009F455C08430F4
:102F000009F0F4CE65E0C3010E940106882309F4AC
:102F1000CAC080918602811108C088E30E947605AC
:102F2000682F6E7F88E30E945C056EE373E080E3A8
:102F300095E00E940E0EEEE1F4E0C3018C5F9C4F21
:102F40002C018F010E5F1F4FF1808081863009F4C4
:102F5000FCC008F0BFC0813009F4EDC0833009F433
:102F6000F0C0F801EF0DF11DE415F50550F30E94D6
:102F70003E0460938F02709390028093910290932D
:102F800092028091E402882359F01092E902109293
:102F9000E8029092EA0264EE72E0CB010E940E0E0B
:102FA000A3E0A0939702A2CEC0909302D090940287
:102FB000E0909502F09096024FEFC416D406E40616
:102FC000F40609F493CE0E943E0400918F02109102
:102FD00090022091910230919202601B710B820B42
:102FE000930B6C157D058E059F0508F47FCE80E35D
:102FF00095E00E94A90E809297020E943E04609381
:103000008B0270938C0280938D0290938E026ECE11
:103010000E943E0460938702709388028093890225
:1030200090938A02E0E3F5E0DF01282D1D922A95B6
:10303000E9F790E080E00E94A90E88E30E947605FF
:10304000682F616088E30E945C0590929702D5CF5B
:1030500062E0C3010E940106882329F16EE373E058
:10306000CE0101960E940E0EEEE1F4E0C3018C5FEA
:103070009C4FBF016E5F7F4F21813081363361F4F9
:1030800082E892E00E940E0ECE0101960E94A90EE7
:1030900082E080939702B1CFFB01E20FF11DE817A8
:1030A000F90738F3F1CF0E943E0400918B02109192
:1030B0008C0220918D0230918E02601B710B820B6D
:1030C000930B613177428105910508F40FCE109280
:1030D00097020CCE8A3331F08F3F09F448CF833307
:1030E00009F03FCF10929302109294021092950231
:1030F00010929602F801C801049620E030E0A90180
:103100006191542F432F322F2227260F311D411D4D
:10311000511DE817F907A1F72F3F9FEF390749071E
:103120005907B9F420939302309394024093950287
:103130005093960216CFB8018CE295E00E940E0ED5
:1031400010CFB80184EE92E0F9CFB8018FED92E094
:10315000F5CFA8EEB3E00E9427216093930270930D
:1031600094028093950290939602FBCE81ED92E0BB
:1031700011CEF9E26F16710408F488CE8091100325
:10318000883009F083CE80911103863009F0F7C3AF
:1031900044E050E060E375E08AE293E00E94582347
:1031A000892B09F073CE80911903813029F58AE0CB
:1031B00093E00E94030E1092180382E0809319039B
:1031C0006AE173E084E293E00E94FB0D68E972E03B
:1031D0008AE193E00E94FB0D60E273E08AE293E0F3
:1031E0000E940E0E60E375E080E293E00E940E0EF6
:1031F0008AE290E00E948E058091EA0283FF0DC072
:1032000010911903123049F461ED72E084EE92E0FE
:103210000E945E0E81111093EA028091DE028111FC
:1032200010C08091DD02882361F06BEC72E08FEDBD
:1032300092E00E945E0E882321F09092DE021092AE
:10324000DD028091D802811121CE8091D70288239E
:1032500009F41CCE6BEC72E089ED92E00E945E0EE8
:10326000882309F413CE9092D8021092D7020ECE82
:103270009091CA02911122C026E36216710408F4EB
:1032800005CE00911B03063009F000CE8091280383
:103290008B3009F0A9C044E050E069ED72E08EE1A6
:1032A00093E00E945823892B09F0F0CD109133034D
:1032B00012FF51C085E08093E302E8CD8131E1F651
:1032C00032EA432E32E0532E312C212C20E0809123
:1032D000CA0282151304D9F1D4F1D20112963C919D
:1032E000129713969C911397809128039F831886B9
:1032F000EF81F8858E171F0619F580912903831336
:103300001FC01496FC901497FF20D1F000912A035F
:1033100010E0102F002720912B032850330B020FB1
:10332000131F409126035091270354274527542704
:10333000ED91FC912EE233E06EE173E009952F2DC3
:10334000FFEF2F1A3F0A45E0440E511CC0CF222345
:1033500009F492CF9BCD0E944A042091E3022230CF
:1033600079F5212F2271223101F560E090E080E0B3
:103370000E94280E88E18093330353E05093E302C8
:103380001092140388E2809315030E94E3041092C4
:1033900036031092370322E04CE150E06AE182E309
:1033A0000E94900486E390E030C39092E30201967D
:1033B00014FF02C090E080E064E00E94280E66CD19
:1033C000253009F463CD10FF0AC0233009F45ECD27
:1033D00069E001960E94280E0093E30257CD60E059
:1033E000009709F453CDE9CF811150CD8091290385
:1033F000803509F04BCD1091330311FF38C0109286
:1034000014038CE2809315030E94160E92E19093B0
:10341000330360E081E090E00E94650410922A038B
:1034200010922B038091360180932C0310922D0370
:103430008D5F8093360182E080933A0380923B0354
:1034400085E080933C0310923D03A0E6A0933203F5
:103450008093340388E78093350322E040E250E014
:103460006AE182E30E9490048AE390E0CEC214FFF6
:103470000DCD0E944A04892B09F008CD10FF06CD1E
:1034800060E090E080E099CF9093FA020CCD8093B9
:10349000ED021093EC029091F702981333C0109252
:1034A0003901109238016091EF027091F002809121
:1034B000F1029091F2020E9420216093080570931E
:1034C000090580930A0590930B056091F3027091B2
:1034D000F4028091F5029091F6020E9420216093FF
:1034E00004057093050580930605909307051093D6
:1034F000030510920205109201051092000510922A
:10350000FF04D1CCEFEFFFEFF0933901E0933801E6
:10351000CACC8093EE029F5F9B3008F4B5CF109227
:10352000FA02C1CC80913801909139018F3E9240CE
:1035300090F0109208051092090510920A05109259
:103540000B051092040510920505109206051092C5
:103550000705109203050E9470098091FF028F5F9A
:10356000893108F0A7C08093FF028091000388236F
:1035700009F4FBC10E94A60261E0892B09F4FBC19A
:1035800080912305882309F40DC10E94FE0C0E943E
:103590004E030E9429032090240530902505409079
:1035A00026055090270560902805709029054091C8
:1035B0002A05498750912B055A879B01AC0160E091
:1035C00070E080E090E051016201730109851A8585
:1035D0000E940F22243931414105510561057105D1
:1035E0008105910521F018F085E0809323058091F5
:1035F0002205882309F47FC18091230580930C055F
:10360000809108059091090520910A0530910B05DC
:1036100030930D0520930E0590930F0580931005B0
:1036200080910405909105052091060530910705CC
:103630003093110520931205909313058093140580
:1036400080910305809315058091010590910205F5
:1036500090931605809317058091FF0490910005C3
:1036600090931805809319056091FB047091FC04F8
:103670008091FD049091FE040E94051E90931A050E
:1036800080931B0570931C0560931D058091FA04BF
:1036900080931E0510921F05ECE0F5E0B5E0EF31D8
:1036A000FB0709F4EEC0919180911F058927809353
:1036B0001F05F4CF1092FF0281E480937C0080917B
:1036C0007A00806480937A0080917A0086FDFCCF36
:1036D0008091780060917900762F682F072E000C7A
:1036E000880B990B0E943D1E20E030EC4FE754E41C
:1036F0000E94931D2DE33AE04FE950E40E94F21E30
:103700006B017C01AC019B016DE37AE08FE990E4F1
:103710000E94211DA70196010E94931D20E030E91F
:103720004CE156E40E94F21E2DEC3CEC4CEA5FEBBF
:103730000E945F1F20ED34E24DE05CE40E94F21E27
:1037400023E333E343EF5EE30E945F1F6B017C01E1
:1037500020E030E04FE753E40E94ED1E1816ACF075
:10376000C092FB02D092FC02E092FD02F092FE02B7
:103770006091FB027091FC028091FD029091FE022B
:103780000E940C1E6093FA04F0CE80E090E0AFE758
:10379000B3E48093FB029093FC02A093FD02B093EC
:1037A000FE02E6CFE0910303E83008F049C0F0E004
:1037B000E452F44E0C941A21E41BE41BE81B101C89
:1037C000141C161C1A1C1D1C2FE740E06FE703C0D9
:1037D0002FE34FE36FE390E080E00E94D9008091F7
:1037E00002038823C1F120E04FEF60E081E090E028
:1037F0000E94D90080913801909139018E3E92400B
:10380000A8F52FEF4FE760E082E090E00E94D9003A
:1038100081E090910103911180E080930103B7CE84
:1038200020E04FEF60E0D7CF2FEFFBCF20E04FE756
:103830006FEFD1CF20E040E0FBCF2FE74FE7C6CFBF
:1038400080914F0690915006892B49F290E080E0DC
:103850000E941F01C4CF80914F069091500602979D
:1038600048F281E090E00E941F01C4CF80914F0692
:1038700090915006039760F282E090E00E941F0151
:10388000C7CFE3E1F0E0F093F904E093F80410927D
:10389000140382E3809315030E94160E8091260381
:1038A00080932803809127038093290382E28093E9
:1038B000260388EB8093270310922A038EE18093DE
:1038C0002B0310922C0310922D0386E1ECE0F5E01F
:1038D000AEE2B3E001900D928A95E1F721E046E275
:1038E00050E06AE188E20E94900480E490E00E9447
:1038F0008E05109222050E9429039B01AC0160E015
:1039000070E080E090E051016201730109851A8541
:103910000E940F222F393F40410551056105710575
:103920008105910541F338F30E9429038B019C0125
:103930006093240510932505809326053093270571
:10394000109228051092290510922A0510922B0535
:1039500040E050E0452B09F464C90E94DA01882355
:1039600009F45BC90E94000058C90E94A602892B75
:1039700009F406CE60E089E00E94CA0201CE59E255
:103980006516710409F482CA811180CA80911203FC
:10399000853409F07BCA44E050E060E375E082E2E0
:1039A00093E00E945823892BA9F044E050E06EE98F
:1039B00072E082E293E00E945823892B59F044E0A0
:1039C00050E060E471E082E293E00E945823892B8A
:1039D00009F05CCA80911B03813009F049CC9091B9
:1039E0002603983009F044CC0E94160E109226034C
:1039F00080912803883F28F0909129039F5F90933E
:103A00002903885F80932803C3010E948E053ECA64
:103A10008091550690915606009711F00E94CF2292
:103A20008091530687FD03C060E00C94F80208956E
:103A3000FB01DC0102C005900D9241505040D8F7C7
:103A400008955058BB27AA270E94391D0C94B31E15
:103A50000E94A51E38F00E94AC1E20F039F49F3F52
:103A600019F426F40C94A21E0EF4E095E7FB0C94D6
:103A70009C1EE92F0E94C41E58F3BA1762077307F1
:103A80008407950720F079F4A6F50C94E61E0EF451
:103A9000E0950B2EBA2FA02D0B01B90190010C015E
:103AA000CA01A0011124FF27591B99F0593F50F476
:103AB000503E68F11A16F040A22F232F342F4427CE
:103AC000585FF3CF469537952795A795F0405395C6
:103AD000C9F77EF41F16BA0B620B730B840BBAF096
:103AE0009150A1F0FF0FBB1F661F771F881FC2F701
:103AF0000EC0BA0F621F731F841F48F48795779515
:103B00006795B795F7959E3F08F0B0CF9395880FCE
:103B100008F09927EE0F9795879508950E94781ED3
:103B200008F481E008950E94A71D0C94B31E0E9422
:103B3000AC1E58F00E94A51E40F029F45F3F29F00A
:103B40000C949C1E51110C94E71E0C94A21E0E9412
:103B5000C41E68F39923B1F3552391F3951B550BBC
:103B6000BB27AA2762177307840738F09F5F5F4F50
:103B7000220F331F441FAA1FA9F335D00E2E3AF08F
:103B8000E0E832D091505040E695001CCAF72BD0A7
:103B9000FE2F29D0660F771F881FBB1F26173707F8
:103BA0004807AB07B0E809F0BB0B802DBF01FF272A
:103BB00093585F4F3AF09E3F510578F00C949C1E4D
:103BC0000C94E71E5F3FE4F3983ED4F38695779517
:103BD0006795B795F7959F5FC9F7880F911D9695E3
:103BE000879597F90895E1E0660F771F881FBB1F3F
:103BF000621773078407BA0720F0621B730B840BEC
:103C0000BA0BEE1F88F7E09508950E940C1E689489
:103C1000B1110C94E71E08950E94CC1E88F09F57A6
:103C200098F0B92F9927B751B0F0E1F0660F771FE0
:103C3000881F991F1AF0BA95C9F714C0B13091F0D6
:103C40000E94E61EB1E008950C94E61E672F782FBF
:103C50008827B85F39F0B93FCCF38695779567959B
:103C6000B395D9F73EF490958095709561957F4F07
:103C70008F4F9F4F0895E89409C097FB3EF49095AD
:103C80008095709561957F4F8F4F9F4F9923A9F035
:103C9000F92F96E9BB279395F695879577956795C4
:103CA000B795F111F8CFFAF4BB0F11F460FF1BC008
:103CB0006F5F7F4F8F4F9F4F16C0882311F096E99B
:103CC00011C0772321F09EE8872F762F05C0662349
:103CD00071F096E8862F70E060E02AF09A95660F02
:103CE000771F881FDAF7880F9695879597F90895BB
:103CF000990F0008550FAA0BE0E8FEEF16161706FD
:103D0000E807F907C0F012161306E407F50798F064
:103D1000621B730B840B950B39F40A2661F0232B7D
:103D2000242B252B21F408950A2609F4A140A695F9
:103D30008FEF811D811D089597F99F6780E870E0DE
:103D400060E008959FEF80EC089500240A94161611
:103D5000170618060906089500240A941216130679
:103D6000140605060895092E0394000C11F4882307
:103D700052F0BB0F40F4BF2B11F460FF04C06F5F23
:103D80007F4F8F4F9F4F089557FD9058440F551FF9
:103D900059F05F3F71F04795880F97FB991F61F0CD
:103DA0009F3F79F087950895121613061406551F44
:103DB000F2CF4695F1DF08C0161617061806991FB0
:103DC000F1CF86957105610508940895E894BB27A5
:103DD00066277727CB0197F908950E94781E08F48B
:103DE0008FEF08950E94051F0C94B31E0E94A51E1C
:103DF00038F00E94AC1E20F0952311F00C949C1E0C
:103E00000C94A21E11240C94E71E0E94C41E70F391
:103E1000959FC1F3950F50E0551F629FF001729F6F
:103E2000BB27F00DB11D639FAA27F00DB11DAA1F7E
:103E3000649F6627B00DA11D661F829F2227B00DCB
:103E4000A11D621F739FB00DA11D621F839FA00D56
:103E5000611D221F749F3327A00D611D231F849FA6
:103E6000600D211D822F762F6A2F11249F575040FD
:103E70009AF0F1F088234AF0EE0FFF1FBB1F661F78
:103E8000771F881F91505040A9F79E3F510580F041
:103E90000C949C1E0C94E71E5F3FE4F3983ED4F311
:103EA000869577956795B795F795E7959F5FC1F7E5
:103EB000FE2B880F911D9695879597F90895FA0125
:103EC000EE0FFF1F309621053105A1F16115710537
:103ED00061F48038BFE39B0749F16894903881050D
:103EE00061F08038BFEF9B0741F099234AF5FF3F0F
:103EF000E1053105210519F1E8940894E795D90108
:103F0000AA2329F4AB2FBE2FF85FD0F310C0FF5FB8
:103F100070F4A695E0F7F73950F019F0FF3A38F44D
:103F20009F779F930DD00F9007FC9058089546F00F
:103F30000C94A21E60E070E080E89FE308954FE7D4
:103F40009F775F934F933F932F930E945A202F9117
:103F50003F914F915F910E94F21E0C94B71F29F47C
:103F600016F00C949C1E0C94E61E0C94A21E0E944B
:103F7000CC1EA8F39638A0F707F80F92E8942BE32D
:103F80003AEA48EB5FE70E94081F0F920F920F92E8
:103F90004DB75EB70F920E94A220E8E6F0E00E94C3
:103FA000E91F4F915F91EF91FF91E595EE1FFF1F84
:103FB00049F0FE57E0684427EE0F441FFA95E1F7F9
:103FC0004195550B0E941C200F9007FE0C94102069
:103FD0000895DF93CF931F930F93FF92EF92DF9299
:103FE0007B018C01689406C0DA2EEF010E94051F48
:103FF000FE01E894A5912591359145915591A6F33F
:10400000EF010E94391DFE019701A801DA9469F7BA
:10401000DF90EF90FF900F911F91CF91DF91089566
:104020009B01AC0160E070E080E89FE30C94931D7D
:104030000C949C1E0C94D6200E94CC1ED8F399237D
:10404000C9F3940F511DA3F39150504094F059F0CF
:10405000882332F0660F771F881F91505040C1F7B8
:104060009E3F51052CF7880F911D9695879597F9DE
:1040700008955F3FACF0983E9CF0BB2786957795FE
:104080006795B79508F4B1609395C1F7BB0F58F7E2
:1040900011F460FFE8CF6F5F7F4F8F4F9F4FE3CFEB
:1040A0000C94E71E16F00C94D6200C94A21E689473
:1040B0000C949C1E0E94CC1EA8F39923C1F3AEF36E
:1040C000DF93CF931F930F93FF92C92FDD27882390
:1040D0002AF02197660F771F881FDAF720E030E07B
:1040E00040E85FEB9FE3883920F0803E38F021966E
:1040F0008F770E94221DE0E9F0E004C00E94221D9B
:10410000EDEBF0E00E94E91F8B01BE01EC01FB2EFC
:104110006F5771097595771F880B990B0E943D1E8B
:1041200028E132E741E35FE30E94051FAF2D9801CC
:10413000AE01FF900F911F91CF91DF910E94391D29
:104140000C94B31EFA01DC01AA0FBB1F9B01AC014A
:10415000BF5728F4222733274427507820C0B7516F
:1041600090F4AB2F0024469537952795011CA39515
:10417000D2F3002071F0220F331F441FB395DAF3FE
:104180000ED00C94211D61307105A0E88A07B94654
:1041900030F49B01AC01662777278827907830960A
:1041A00021F0208331834283538308959F3F31F070
:1041B000915020F4879577956795B795880F911D55
:1041C0009695879597F90895AA1BBB1B51E107C0E7
:1041D000AA1FBB1FA617B70710F0A61BB70B881F97
:1041E000991F5A95A9F780959095BC01CD01089526
:1041F000A1E21A2EAA1BBB1BFD010DC0AA1FBB1FEB
:10420000EE1FFF1FA217B307E407F50720F0A21B5C
:10421000B30BE40BF50B661F771F881F991F1A94C9
:1042200069F760957095809590959B01AC01BD01F3
:10423000CF010895EE0FFF1F0590F491E02D099432
:1042400069279627692778278727782708950E9466
:104250002422A59F900DB49F900DA49F800D911DC9
:1042600011240895DF93CF931F930F939A9DF02D00
:10427000219FF00D8B9DF00D8A9DE02DF10D039F88
:10428000F00D029FE00DF11D4E9DE00DF11D5E9DB4
:10429000F00D4F9DF00D7F936F93BF92AF925F93A0
:1042A0004F93D5010E9424228B01AC01D7010E94BB
:1042B0002422EB01E80FF91FD6010E9481212F91E2
:1042C0003F91D6010E942422C60FD71FE81FF91F75
:1042D000AF91BF910E9481212F913F910E94242292
:1042E000C60FD71FE81FF91FD6010E942422E60F30
:1042F000F71F9801BE01CF010F911F91CF91DF9160
:1043000008950E942422460F571FC81FD91F08F482
:104310003196089597FB57FF0C949A219F938F93A2
:104320000E949A216E1B7F0BAF91BF918A0B9B0B52
:104330000895E894DF93CF93FC01DB010E942422CF
:104340007F936F93E9019A01AC01BF93AF933F93C1
:104350002F93DF010E94242226F46C1B7D0B820B1D
:10436000930B9E01EB01FC010E948121AF91BF9153
:104370002F913F910E948121BE01CF01F9012F9120
:104380003F91CF91DF910895002E083090F0982F43
:10439000872F762F652F542F432F322F2227085037
:1043A000F4CF220F331F441F551F661F771F881F2E
:1043B000991F0A95B2F7002D089597FD1094002ECD
:1043C000083098F00850232F342F452F562F672F91
:1043D000782F892F912DF4CF159497958795779500
:1043E000679557954795379527950A95AAF711240C
:1043F000002D08952A0D3B1D4C1D5D1D6E1D7F1D5A
:10440000801F911F08950024A7FD00942A0F301DDE
:10441000401D501D601D701D801D901D08952A199E
:104420003B094C095D096E097F09800B910B0895CA
:104430000024A7FD00942A173005400550056005AB
:104440007005800590050895A29FB001B39FC0013B
:10445000A39F700D811D1124911DB29F700D811DB0
:104460001124911D08950F931F93CF93DF938230F2
:10447000910510F482E090E0E0916A06F0916B06FD
:1044800030E020E0B0E0A0E0309799F4211531054C
:1044900009F44AC0281B390B24303105D8F58A812C
:1044A0009B816115710589F1FB0193838283FE0174
:1044B00011C0408151810281138148175907E0F0F2
:1044C0004817590799F4109761F012960C931297B8
:1044D00013961C933296CF01DF91CF911F910F91CC
:1044E000089500936A0610936B06F4CF21153105E9
:1044F00051F04217530738F0A901DB019A01BD01C1
:10450000DF01F801C1CFEF01F9CF90936B068093E3
:104510006A06CDCFFE01E20FF31F819391932250E3
:10452000310939832883D7CF2091680630916906F5
:10453000232B41F420913C0130913D0130936906D9
:104540002093680620913A0130913B0121153105F5
:1045500041F42DB73EB740913E0150913F01241BDD
:10456000350BE0916806F0916906E217F307A0F4B5
:104570002E1B3F0B2817390778F0AC014E5F5F4FB9
:104580002417350748F04E0F5F1F5093690640937C
:104590006806819391939FCFF0E0E0E09CCFCF93AA
:1045A000DF930097E9F0FC01329713821282A09109
:1045B0006A06B0916B06ED0130E020E01097A1F49F
:1045C00020813181820F931F209168063091690606
:1045D0002817390709F061C0F0936906E09368066F
:1045E000DF91CF910895EA01CE17DF07E8F54A8100
:1045F0005B819E0141155105B1F7E901FB83EA8317
:1046000049915991C40FD51FEC17FD0761F48081C2
:1046100091810296840F951FE90199838883828195
:1046200093819B838A83F0E0E0E012968D919C91C8
:1046300013970097B9F52D913C911197CD010296F2
:10464000820F931F20916806309169062817390759
:1046500039F6309751F510926B0610926A06B093B6
:104660006906A0936806BCCFD383C2834081518181
:10467000840F951FC817D90761F44E5F5F4F88817B
:104680009981480F591F518340838A819B8193836D
:1046900082832115310509F0B0CFF0936B06E093CA
:1046A0006A069ECFFD01DC01C0CF13821282D7CFF4
:1046B000FB01DC0104C08D910190801921F441506F
:1046C0005040C8F7881B990B0895DC0101C06D9319
:1046D00041505040E0F7089510E0CEEAD0E004C029
:1046E000FE010E941A212196CF3AD107C9F7F8940A
:0246F000FFCFFA
:1046F20041726475696E6F2D454E4332386A3630A9
:104702002D3030000000000000000000000000001A
:10471200FFFFFF0008080808C0A80901C0A809B9DE
:104722007069692D30310A01FFFF00006C068000BC
:10473200FFFFFFFFFFFF0000000010026E019D015E
:104742005D02CE01AC01C00100000000D808AB0838
:104752000C098108A4089108820800000000B10D2C
:00000001FF
