:100000000C94AF000C94D7000C94D7000C94D7003C
:100010000C94D7000C94D7000C94D7000C94D70004
:100020000C94D7000C94D7000C94D7000C94D700F4
:100030000C94D7000C94D7000C94D7000C94D700E4
:100040000C941E0B0C94D7000C94EC0A0C94C60A6A
:100050000C94D7000C94D7000C94D7000C94D700C4
:100060000C94680B0C94D70007634236B79BD8A753
:100070001A39685618AEBAAB558C1D3CB7CC5763CD
:10008000BD6DEDFD753EF6177231BF000000803F7B
:1000900008000000BE922449123EABAAAA2ABECD97
:1000A000CCCC4C3E00000080BEABAAAAAA3E000009
:1000B0000000BF000000803F000000000008417801
:1000C000D3BB4387D1133D190E3CC3BD4282AD2B38
:1000D0003E68EC8276BED98FE1A93E4C80EFFFBE30
:1000E00001C4FF7F3F0000000000638253630001F2
:1000F00008000604000100000000240027002A0078
:10010000450000820000400020000000002300267F
:10011000002900000000080002010000030407009D
:1001200000000000000000010204081020408001CF
:10013000020408102001020408102000000000251D
:100140000028002B00040404040404040402020236
:1001500002020203030303030300870C9016112419
:100160001FBECFEFD8E0DEBFCDBF11E0A0E0B1E011
:10017000E0EFF7E302C005900D92A236B107D9F780
:1001800025E0A2E6B1E001C01D92AF39B207E1F768
:1001900010E0CEEAD0E004C02197FE010E94821A4E
:1001A000CD3AD107C9F70E94460D0C94EB1B0C9475
:1001B0000000E0918205F09183058E179F0798F566
:1001C00030918705332361F0639FB0011124672FBD
:1001D000349FA0011124452F329F90011124232F19
:1001E00030918D05E0918805F091890550918A053F
:1001F00035131AC0DC01AA0FBB1F8A0F9B1F8E0F7D
:100200009F1FE0918A05E80FF92FF11D6083E091AF
:100210008B05E80FF92FF11D408330918C05830F7A
:10022000911DFC0120830895880F991F880F991F45
:100230008E0F9F1FFC01E30FF11D1082E2CFE091B2
:100240008D05209188053091890540918A05E41338
:100250001AC0AC01440F551F840F951F820F931FC6
:10026000E0918A05E80FF92FF11D1082E0918B05CE
:10027000E80FF92FF11D108220918C05820F911D3E
:10028000FC0110820895880F991F880F991F820F13
:10029000931FE80FF92FF11D1082E2CFCF93DF9368
:1002A0002091D3042223C1F0FC0120812223A1F05C
:1002B000C3EDD4E0AFECB4E09C012C5F3F4F8991DB
:1002C00041919D918427892339F4E217F307B9F707
:1002D00081E0DF91CF91089580E0FBCFAF92BF9294
:1002E000CF92DF92EF92FF920F931F93CF93DF9302
:1002F0006C017B018B01040F151FEB015E01AE1831
:10030000BF08C017D10759F06991D601ED91FC9152
:100310000190F081E02DC6010995892B79F7C5017F
:10032000DF91CF911F910F91FF90EF90DF90CF90D1
:10033000BF90AF90089508950895FC01538D448DAA
:10034000252F30E0842F90E0821B930B541710F080
:10035000CF96089501970895FC01918D828D98178D
:1003600061F0A28DAE0FBF2FB11D5D968C91928D65
:100370009F5F9F73928F90E008958FEF9FEF089596
:10038000FC01918D828D981731F0828DE80FF11D5F
:10039000858D90E008958FEF9FEF0895FC01918D7A
:1003A000228D892F90E0805C9F4F821B91098F7373
:1003B0009927089587ED94E00E94CE0121E0892BD2
:1003C00009F420E0822F089580E090E0892B29F045
:1003D0000E94DA0181110C9400000895FC01A48DA3
:1003E000A80FB92FB11DA35ABF4F2C91848D90E057
:1003F00001968F739927848FA689B7892C93A0893A
:10040000B1898C91837080648C93938D848D9813C3
:1004100006C00288F389E02D80818F7D8083089556
:10042000EF92FF920F931F93CF93DF93EC0181E044
:10043000888F9B8D8C8D98131AC0E889F9898081EB
:1004400085FF15C09FB7F894EE89FF896083E8891E
:10045000F98980818370806480839FBF81E090E010
:10046000DF91CF911F910F91FF90EF900895F62E9D
:100470000B8D10E00F5F1F4F0F731127E02E8C8D37
:100480008E110CC00FB607FCFACFE889F98980817C
:1004900085FFF5CFCE010E94EE01F1CFEB8DEC0F81
:1004A000FD2FF11DE35AFF4FF0829FB7F8940B8F99
:1004B000EA89FB8980818062CFCFCF93DF93EC0103
:1004C000888D8823B9F0AA89BB89E889F9898C913C
:1004D00085FD03C0808186FD0DC00FB607FCF7CFF8
:1004E0008C9185FFF2CF808185FFEDCFCE010E94F8
:1004F000EE01E9CFDF91CF910895833081F028F4A8
:10050000813099F08230A9F008958730A9F08830C1
:10051000C9F08430B1F4809180008F7D03C0809158
:1005200080008F7780938000089584B58F7784BD95
:10053000089584B58F7DFBCF8091B0008F77809335
:10054000B00008958091B0008F7DF9CFCF93DF93F5
:10055000ECE1F1E08491E0E3F1E0D491EEE4F1E04C
:10056000C491CC23A1F081110E947D02EC2FF0E018
:10057000EE0FFF1FE75FFE4FA591B491EC91ED23C5
:1005800081E090E009F480E0DF91CF91089580E070
:1005900090E0FACF1F93CF93DF93282F30E0F9013B
:1005A000ED5EFE4F8491F901E95DFE4FD491F901B2
:1005B000EB5BFE4FC491CC23A9F0162F81110E9452
:1005C0007D02EC2FF0E0EE0FFF1FE55CFE4FA591E2
:1005D000B4918FB7F894EC91111108C0D095DE2337
:1005E000DC938FBFDF91CF911F910895DE2BF8CF61
:1005F000CF93DF9390E0FC01E95DFE4F24918B5B8C
:100600009E4FFC0184918823D1F090E0880F991FC0
:10061000FC01EA50FF4FA591B491FC01E55CFE4F4F
:10062000C591D49161110EC09FB7F8948C91E22FBF
:10063000E0958E238C932881E223E8839FBFDF918E
:10064000CF9108958FB7F894EC91E22BEC938FBF84
:10065000F6CF3FB7F89480910D0290910E02A091D1
:100660000F02B091100226B5A89B05C02F3F19F0CC
:100670000196A11DB11D3FBFBA2FA92F982F882722
:10068000BC01CD01620F711D811D911D42E0660FFD
:10069000771F881F991F4A95D1F708950F931F93CD
:1006A000CF93DF93CDB7DEB729970FB6F894DEBFAF
:1006B0000FBECDBF8091880590918905892B09F4E3
:1006C00067C00E94290300918E0510918F0520912B
:1006D000900530919105601B710B820B930B6C326E
:1006E00071408105910568F3F8948091840590919B
:1006F00085059A838983E0918805F0918905DF015A
:1007000011968081898790918005E0919205F09102
:10071000930580919405992309F445C09081982B05
:1007200098879081809589238F838F818C8388E03F
:100730008B8358856F8149853B812C8189819A8182
:10074000508347FD252F3A952083262F39F0441FEB
:1007500000C000006083000000C0F2CF38E04D917F
:1007600060830000019761F7F0939305E093920591
:1007700049873B832C839A83898378940E94290339
:1007800060938E0570938F058093900590939105EB
:1007900029960FB6F894DEBF0FBECDBFDF91CF9183
:1007A0001F910F9108959081982B98879081809543
:1007B00089238F838F818E8388E08D8358856F8115
:1007C00049853D812E8189819A81508347FD252F5E
:1007D00000C000C0208300C000C000C000C000C036
:1007E00060830000262F3A9541F0441F000000C0AE
:1007F00000C000C000C000C0E8CF38E04D9100C08C
:10080000608300C0019709F7F0939305E093920588
:1008100049873D832E83AFCF8F929F92AF92BF9235
:10082000CF92DF92EF92FF924B015C010E9429036D
:100830006B017C010E9429036C197D098E099F09B7
:10084000683E734081059105A8F321E0821A910862
:10085000A108B10888EEC80E83E0D81EE11CF11C87
:1008600081149104A104B10429F7FF90EF90DF9067
:10087000CF90BF90AF909F908F9008952FB7F8942E
:100880006091090270910A0280910B0290910C0212
:100890002FBF08958091C7029091C8029827892799
:1008A000982744972091E50230E044E0359527955C
:1008B0004A95E1F7220F331F220F331F821B930B40
:1008C00097FF02C090E080E008952091DB02309114
:1008D000D9023093DB022093D9022091DC023091BF
:1008E000DA023093DC022093DA02E7EBF2E021A592
:1008F000820F911D25A585A7662381F021A7892F49
:100900009927319722E0E33BF20789F71092E90239
:100910001092EA0280E58093E502089511A6EFCFD8
:100920000F931F93CF93DF9370E069547D4F8A013B
:10093000075F1F4F213029F0223031F48A01025025
:10094000110930E020E003C000E010E09801EB0165
:10095000FA01E230F10558F0A991B991BA27AB2715
:10096000BA270A0F1B1F211D311D3297F2CFFA0142
:10097000EE7F6E0F7F1F4E175F0769F0FB0140810E
:1009800050E070E060E0762F652F542F4427040F6D
:10099000151F261F371FA901662777274115510507
:1009A0006105710519F022273327F1CF00951095C5
:1009B000E82FF0E0E954FD4F10830183DF91CF91E0
:1009C0001F910F910895E7EBF2E0108E118E80E4F5
:1009D000848B158A868B20E044E150E06EE088E14C
:1009E0000C9490048EBD0DB407FEFDCF089561E018
:1009F000809119020E94CA0278940895F89460E0E8
:100A0000809119020C94CA020F931F93CF93DF9326
:100A1000EC018B010E94FE042097B9F08AE30E944A
:100A2000F2041EBCF801CE01019739F00DB407FEA7
:100A3000FDCF2EB51EBC2193F7CF2197C00FD11F3C
:100A40000DB407FEFDCF8EB58883DF91CF911F9146
:100A50000F910C94F7041F93CF93DF93182FC62F99
:100A6000D42F0E94FE048C2F8F71812B0E94F204E0
:100A70008D2F0E94F204DF91CF911F910C94F70407
:100A8000CF93C82FC076809107028C1799F043E06E
:100A90006FE180EA0E942B05C09307024C2F50E0C3
:100AA00085E0559547958A95E1F76FE180E8CF910C
:100AB0000C942B05CF910895CF93DF93C82FD62F99
:100AC0000E9440054D2F6C2F80E4DF91CF910C9454
:100AD0002B05CF93DF93C82FD72F0E945C056D2F76
:100AE00081E08C0FDF91CF910C945C05CF93C82FE0
:100AF0000E9440050E94FE048C2F8F710E94F20418
:100B000080E00E94F204C7FF03C080E00E94F2046C
:100B1000CEB50E94F7048C2FCF910895CF93DF9329
:100B2000EC0140E86FE180E80E942B0540E86FE1AE
:100B300080EA0E942B054AE06CE180EA0E942B05C6
:100B400060E07CE082E00E946905BE01745F86E09F
:100B50000E94690540E060E08AE70E942B050E9440
:100B6000FE042097B1F08AE70E94F2048091B70258
:100B70008EBDE8EBF2E0C954DD4FEC17FD0731F014
:100B800081910DB407FEFDCF8EBDF7CF0DB407FEEA
:100B9000FDCF0E94F70448E06FE180E80E942B053A
:100BA000D0E0C0E08CE10E9476058A7029F421969D
:100BB000C83E83E0D807B1F78CE10E94760581FD3D
:100BC00003C0C83ED34039F448E06FE180EADF91CA
:100BD000CF910C942B05DF91CF910895CF93DF93A4
:100BE000EB01682F84ED0E945C05BE0186ED0E943A
:100BF00069058AEE0E94760580FDFBCFDF91CF91DB
:100C00000895CF92DF92EF92FF920F931F93863455
:100C1000910568F12091DA02233449F5C090E5028C
:100C2000D090E602E090E702F090E80200912B02FB
:100C300010912C0220912D0230912E02C016D10667
:100C4000E206F306A1F4E1EDF3E089549D4F9F0124
:100C50002E5F3F4F41815081553319F45281651702
:100C600071F0F901E40FF11DE817F90780F380E056
:100C70001F910F91FF90EF90DF90CF90089581E04A
:100C8000F7CFE0910502F09106029F012F5F3F4FE1
:100C9000309306022093050280830895FF920F93FC
:100CA0001F93CF93DF93162FF42E052F0E9441063A
:100CB000812F0E944106CF2DD02F115020F0899115
:100CC0000E944106FACFDF91CF911F910F91FF90C3
:100CD00008952091BB01260F3327331F21323105A0
:100CE000ECF42091DF01FC0190E080E0243069F019
:100CF00082E00895A091BB012191AC0145565E4F61
:100D0000A40FB52FB11D2C930196861798F38091EF
:100D1000BB01680F6093BB0180E0089581E00895F6
:100D20001092DF0181E08093E1011092E00161E027
:100D300082E10E94CA0261E083E10E94CA02E9EBFB
:100D4000F0E080818E7F808380818D7F808388E446
:100D50008093B80085E48093BC0008950895E091E5
:100D6000180280911702E81730F4F0E0EB58FE4FBC
:100D7000808190E008958FEF9FEF08959091180281
:100D8000809117022FEF3FEF981748F4E92FF0E01A
:100D9000EB58FE4F208130E09F5F90931802C9010D
:100DA00008958091170290911802891B990B08955C
:100DB000CF93DF93CB01EA01642F0E946906CE0135
:100DC000DF91CF910895CF93DF931F92CDB7DEB718
:100DD000698361E0CE0101960E94690681E090E09E
:100DE0000F90DF91CF91089590E080E00895EF9209
:100DF000FF920F931F93CF93DF931092AC04109246
:100E0000AB044091640180916B019091630150911A
:100E10006201E090B602F090AB027091B502609171
:100E2000CE04F901E901C00FD11FEC17FD0729F12C
:100E30002191A82FB0E0AB59BE4F2C934E3E91F4B8
:100E40002F3E81F480916501209166013091670108
:100E5000932F9227982750916801951749F080E0C9
:100E600053E0E3CF8F5F422F8630F8F280E0DDCF92
:100E7000732FF22EE82E61E0F2CF5093620190932F
:100E8000630180936B01409364011093AC04009361
:100E9000AB04E092B602F092AB027093B50260939D
:100EA000CE04DF91CF911F910F91FF90EF900895A5
:100EB000AF92BF92CF92DF92EF92FF920F931F9368
:100EC000CF93DF930E943E04DC019B01AD0160E003
:100ED00070E080E090E0A0906D01B0906E01C09055
:100EE0006F01D0907001E0907101F090720100915B
:100EF0007301109174010E949A1A293F310541052E
:100F00005105610571058105910509F008F464C07A
:100F10000E943E04DC01CB0160936D0190936E0151
:100F2000A0936F01B0937001109271011092720141
:100F300010927301109274018091CD04882361F0A6
:100F400090916C01282F30E02D5F3F4F92171306D0
:100F500019F014F010926C01C0916C01C81750F593
:100F60009091AC02911126C0882321F120E04EE639
:100F70006FEF90E080E00E94D90020E04EE66FEF36
:100F800081E090E00E94D90020E04EE66FEF82E021
:100F900090E00E94D90081E08093AC02DF91CF9174
:100FA0001F910F91FF90EF90DF90CF90BF90AF9087
:100FB0000C944E03409184055091850570E060E0EB
:100FC00080918805909189050E94E41B1092AC02E3
:100FD000CF5FC0936C01E2CFDF91CF911F910F9152
:100FE000FF90EF90DF90CF90BF90AF9008958F92D9
:100FF0009F92AF92BF92EF92FF920F931F93CF9366
:10100000DF93CDB7DEB7A1970FB6F894DEBF0FBE62
:10101000CDBF7C01FA01CB0119A2223008F42AE0ED
:101020008E010F5D1F4F822E912CB12CA12CBF0180
:10103000A50194010E94601AF901CA016A3074F591
:10104000605DD8016E938D01232B242B252B79F71E
:1010500090E080E0109789F0FD0101900020E9F711
:101060003197AF014A1B5B0BD701ED91FC910280D8
:10107000F381E02DB801C7010995A1960FB6F89448
:10108000DEBF0FBECDBFDF91CF911F910F91FF90BB
:10109000EF90BF90AF909F908F900895695CD1CFF3
:1010A0008F929F92AF92BF92CF92DF92EF92FF9278
:1010B0000F931F93CF93DF937C01EB016C0182E0D0
:1010C000C80ED11C4701E5E08E0E911C10E000E037
:1010D000F60141916F0150E070E060E02AE0CE013E
:1010E0000E94F7075C01E881F9810190F081E02D11
:1010F0006EE2CE0109958A0D9B1D080F191FC814B9
:10110000D90431F7F701458150E070E060E02AE052
:10111000CE010E94F707800F911FDF91CF911F91A1
:101120000F91FF90EF90DF90CF90BF90AF909F9086
:101130008F900895DC0196E0FB0101900D929A9545
:10114000E1F70895BC0187EB92E00E949A086CE3F6
:1011500072E08DEB92E00C949A08DC0194E0FB01C4
:1011600001900D929A95E1F708958DEB92E00E941F
:10117000A20861ED72E085ED92E00E94AD0863ED9A
:1011800074E081ED92E00E94AD080C94E304262FF8
:1011900020612093E602643021F0009711F481E091
:1011A00090E061E00E9465041092C70288E280939B
:1011B000C8020E94B50884E08093E7021092E8021A
:1011C00022E04CE150E06AE182E30E94900486E371
:1011D00090E00C948E05CF93DF93EB010E94A20860
:1011E000BE0185ED92E00E94AD0863ED74E081EDF3
:1011F00092E0DF91CF910C94AD08CF93DF93EB0198
:1012000044E050E0BC0183ED92E00E94D71B892BA3
:1012100049F46DEC72E0CE010E949A0881E0DF9102
:10122000CF91089580E0FBCF0F931F93CF938C0154
:1012300082E391E00E94A208E7EBF2E088E0848775
:10124000C6E0C58748E050E06EEE70E085EC92E0C5
:101250000E94A016E7EDF2E0DF011D92CA95E9F7C2
:101260006CE372E08DEC92E00E949A08B8018DED7B
:1012700092E00E94AD0863ED74E083ED92E00E947D
:10128000AD088AE290E0CF911F910F910C948E05EA
:10129000EF92FF920F931F93CF93DF938C01E7EBB5
:1012A000F2E086E191E0DF019C011D922150304087
:1012B000E1F780913B02C2E3D1E0833011F4C6E252
:1012C000D2E0CE010E944E01BE01882309F4ACC0D9
:1012D0008FE692E00E94EB088881807F803E91F04B
:1012E00088819981AA81BB818F3F9F4FAF4FBF4FAC
:1012F00049F044E050E0BE0182E492E00E94D71B36
:10130000892B31F462E371E087EB92E00E949A0846
:1013100088E08093C3021092C40249E050E060E08C
:1013200071E085EC92E00E94A0161092C70281E164
:101330008093CE021092DB0283E48093DC02109251
:10134000D90284E48093DA021092DD021092DF0267
:101350001092E00262E371E087EB92E00E949A084B
:1013600081E08093E1028093E20286E08093E302D1
:1013700080912B0290912C02A0912D02B0912E020F
:101380008093E5029093E602A093E702B093E8020F
:10139000C0913B02C33031F463ED74E08DEE92E016
:1013A0000E94AD086CE372E08DEF92E00E949A0813
:1013B0008DEC93E09093060280930502EAEEF0E054
:1013C00084910E944106EBEEF0E084910E94410678
:1013D000ECEEF0E084910E944106EDEEF0E08491A5
:1013E0000E94410685E30E94410681E00E94410679
:1013F00083E0C11101C081E00E9441068DE30E949B
:10140000410687E00E94410681E00E9441068CE38C
:10141000E82E82E0F82EC7E0C15049F0D7018D9147
:101420007D010E944106F8CF85E792E053CF80917D
:101430000001882371F060E071E0FB010190002061
:10144000E9F7BF016150714040E051E08CE00E943B
:101450004E060115110559F0A80164E082E30E94CF
:101460004E0646E252E064E086E30E944E0687E3C1
:101470000E94410683E00E94410681E00E944106ED
:1014800083E00E94410686E00E9441068FEF0E94A1
:101490004106C0910502D0910602C15ED240CE0144
:1014A0004C969093C7028093C8020E94E304CE0139
:1014B00008969093DD028093DE02AE01405F5F4F9D
:1014C00021E06AE188E20E949004CE018A96DF91D1
:1014D000CF911F910F91FF90EF900C948E05CF93B9
:1014E000DF9385ED8093BC008091970190919801E6
:1014F000A0919901B0919A010796A11DB11D23E019
:10150000B695A795979587952A95D1F72091BC0018
:1015100024FD03C01092DF0136C040919701509125
:1015200098016091990170919A01452B462B472BA8
:1015300069F30097A105B10541F025E32A95F1F77C
:1015400000000197A109B109E1CF8091960191E0D6
:10155000909395018823B9F0C091B800D091BA005A
:101560008091BC008A7B8093BC0060E082E10E9495
:10157000CA0260E083E10E94CA020E949006D093F2
:10158000BA00C093B800DF91CF9108951F920F92D7
:101590000FB60F9211242F933F934F935F936F9346
:1015A0007F938F939F93AF93BF93EF93FF9387EDB9
:1015B00094E00E94EE01FF91EF91BF91AF919F9156
:1015C0008F917F916F915F914F913F912F910F90EC
:1015D0000FBE0F901F9018951F920F920FB60F928B
:1015E00011242F938F939F93EF93FF93E091E70440
:1015F000F091E8048081E091ED04F091EE0482FD29
:101600001BC090818091F0048F5F8F732091F10453
:10161000821741F0E091F004F0E0E952FB4F958F22
:101620008093F004FF91EF919F918F912F910F90F4
:101630000FBE0F901F9018958081F4CF1F920F92CC
:101640000FB60F9211242F933F938F939F93AF93D5
:10165000BF938091090290910A02A0910B02B09170
:101660000C023091080223E0230F2D3758F5019624
:10167000A11DB11D209308028093090290930A02D4
:10168000A0930B02B0930C0280910D0290910E0278
:10169000A0910F02B09110020196A11DB11D80937F
:1016A0000D0290930E02A0930F02B0931002BF910F
:1016B000AF919F918F913F912F910F900FBE0F90FF
:1016C0001F90189526E8230F0296A11DB11DD2CFB9
:1016D0001F920F920FB60F9211242F933F934F93A7
:1016E0005F936F937F938F939F93AF93BF93EF938A
:1016F000FF938091B900887F803609F44AC0F0F5E5
:10170000883209F4A7C018F5803109F49BC0B8F4F9
:10171000882309F4F9C0883009F494C0FF91EF914F
:10172000BF91AF919F918F917F916F915F914F91F9
:101730003F912F910F900FBE0F901F9018958831F9
:1017400009F488C0803251F78093DE0114C08034E0
:1017500009F49DC040F48033B9F38833F9F68093DF
:10176000DE0185ECB0C0803509F485C0883509F408
:1017700096C0883499F60E946F0AD0CF883909F450
:101780008CC038F5883729F050F4883611F080374E
:1017900029F683E08093DF011092DD0157C088387D
:1017A00009F47BC0803919F0803809F0B7CF8091F7
:1017B000DD01803208F071C0E091DD0181E08E0F23
:1017C0008093DD018091BB00F0E0E354FE4F808305
:1017D0003DC0803B39F0E0F4803A09F479C0883AA2
:1017E00009F09CCF84E08093DF011092BC0110923D
:1017F000BB01E0911302F091140209958091BB01A5
:1018000081110FC081E08093BB0110929B0109C040
:10181000803C09F4A6CF883C09F4A3CF883B09F0AB
:101820007DCFE091BC0181E08E0F8093BC01F0E0A0
:10183000E556FE4F80818093BB009091BC01809162
:10184000BB0129C0809104028093BB0085EC80938A
:10185000BC0064CF9091030280910202981758F562
:10186000E091030281E08E0F80930302F0E0EE51DD
:10187000FE4F8081E9CFE091030281E08E0F8093DB
:1018800003028091BB00F0E0EE51FE4F8083909107
:101890000302809102029817C8F285E8D8CFE09140
:1018A000030281E08E0F809303028091BB00F0E081
:1018B000EE51FE4F80838091E10181115CCF81E088
:1018C0008093E00184EA8093BC001092DF0126CF70
:1018D00085EC8093BC001092DF018091DD018032A5
:1018E00030F4E091DD01F0E0E354FE4F10826091AE
:1018F000DD0170E0E0911102F09112028DEB91E0B8
:1019000009951092DD010ACF1092DE0134CF1092BA
:10191000DA041092D90488EE93E0A0E0B0E080935E
:10192000DB049093DC04A093DD04B093DE042CE38D
:1019300031E03093D8042093D70425EC30E0309385
:10194000E4042093E30424EC30E03093E604209395
:10195000E50420EC30E03093E8042093E70421EC28
:1019600030E03093EA042093E90422EC30E0309335
:10197000EC042093EB0426EC30E03093EE0420934B
:10198000ED041092F0041092F1041092F2041092FF
:10199000F304109277051092760580937805909362
:1019A0007905A0937A05B0937B058EE491E090933E
:1019B00075058093740580E691E090939605809379
:1019C000950510929705109298051092990510921E
:1019D0009A05109281051092870510928E0510923B
:1019E0008F05109290051092910581E080938D05EE
:1019F00080938A0510928B0592E090938C058093DA
:101A0000800589E090E090938505809384050E948D
:101A1000B21A9093890580938805009771F129E0A7
:101A2000FC0111922A95E9F783E090E090938305F9
:101A30008093820588E080938605809181058823C4
:101A400041F061E088E00E94F80260E088E00E94D6
:101A5000CA02EDE4F1E0E491F0E0EE0FFF1FE55C77
:101A6000FE4F859194919093930580939205EFE2B8
:101A7000F1E0E491E09394050895109285051092A9
:101A800084051092830510928205D4CFCF93DF9303
:101A900000D000D000D0CDB7DEB7789484B5826096
:101AA00084BD84B5816084BD85B5826085BD85B502
:101AB000816085BD80916E00816080936E00109280
:101AC00081008091810082608093810080918100FB
:101AD000816080938100809180008160809380008C
:101AE0008091B10084608093B1008091B0008160EA
:101AF0008093B00080917A00846080937A00809116
:101B00007A00826080937A0080917A00816080936D
:101B10007A0080917A00806880937A001092C100E8
:101B20008EEE8093CB048FEE8093CC0461E081E154
:101B30000E94F80260E081E10E94CA0261E080E157
:101B40000E94F80261E080E10E94CA0261E088E040
:101B50000E94F80261E089E00E94F8028091860507
:101B600087FD08C061E00E94F80260E08091860570
:101B70000E94CA0281E080938105409184055091C2
:101B8000850570E060E080918805909189050E944C
:101B9000E41B0E944E03109218021092170210923A
:101BA0001602109215020E9490068BE991E0909324
:101BB0001402809313028CE991E0909312028093B7
:101BC000110268EC70E080E090E00E940C0410923A
:101BD0008F0287E390E0C12CD12C7601C39400974B
:101BE000C1F0FC01A3E0F595E795AA95E1F7E65E63
:101BF000FD4F282F2770B701A60104C0440F551FC1
:101C0000661F771F2A95D2F72081242B2083019706
:101C1000E6CF64E271E08CE392E00E949A0884EFE0
:101C200091E090932202809321020CB406FC25C01F
:101C300061E08AE00E94F80261E08AE00E94CA0244
:101C400061E08BE00E94F80261E08DE00E94F80202
:101C500060E08CE00E94F80261E08BE00E94CA0222
:101C600060E08BE00E94CA0260E08DE00E94CA0240
:101C700080E58CBD8DB581608DBD8AE080931902B1
:101C800061E00E94F8020E94F7044FEF60E08FEFDE
:101C90000E942B0562E070E080E090E00E940C045E
:101CA0000E94FE048DE10E94F20480E00E94F20492
:101CB0001EB50E94F704112399F370E060E088E0FC
:101CC0000E94690570E060E08CE00E9469056FEF9A
:101CD0007BE08AE00E94690560E07CE084E00E948D
:101CE00069056FEF71E186E00E94690566E774E0BF
:101CF00084E10E94EE0561EB88E30E945C056FE3DE
:101D000070E388E20E94690569EF77EF80E30E9443
:101D1000690561E080EC0E945C0542E362EC80E8CA
:101D20000E942B0562E17CE086EC0E94690562E17D
:101D300084EC0E945C056CED75E08AEC0E946905FC
:101D400060913C0284EE0E945C0560913D0285EE4C
:101D50000E945C0560913E0282EE0E945C056091EB
:101D60003F0283EE0E945C056091400280EE0E947B
:101D70005C056091410281EE0E945C0560E071E0CB
:101D800080E10E94EE058FE10E94400540EC6BE18E
:101D900080E80E942B0544E06FE180E80E942B055B
:101DA00082E70E947605863008F08F5F81110CC0B3
:101DB00081E08093CD040E94580764E070E080E0E9
:101DC00090E00E940C04F7CF10928F0260E271E065
:101DD00083ED94E00E94AD08E3EDF4E02FEC34E0F5
:101DE00062E472E047ED54E09191D9018D919D013B
:101DF0008095892BDB018D93BD014E175F07A1F7FD
:101E000010928D0210928C029091D3048091200147
:101E1000981312C09091D4048091210198130CC0A2
:101E20009091D50480912201981306C09091D60418
:101E300080912301981761F082E08093CD040E9485
:101E4000580764E070E080E090E00E940C04F7CF57
:101E500080916E02883098F4B5E08B9FF0011124D8
:101E6000EA5BFD4F27EF36E03183208328EB32E237
:101E70003383228391E094838F5F80936E02E0919D
:101E8000E704F091E80482E08083E091E304F091BC
:101E9000E4041082E091E504F091E60480E180839F
:101EA0001092EF04E091EB04F091EC0486E0808363
:101EB000E091E904F091EA04808180618083E091FF
:101EC000E904F091EA04808188608083E091E9046C
:101ED000F091EA04808180688083E091E904F091C8
:101EE000EA0480818F7D808368EC70E080E090E080
:101EF0000E940C0499249394E4E08E2E8091250294
:101F0000882379F060912302709124026115710594
:101F100009F050C16FEF7BE08CE00E9469051092E0
:101F2000250289E30E947605F12CE12C8823D1F16A
:101F3000609123027091240280E00E946905BE0135
:101F40006F5F7F4F86E090E00E94040589819A814F
:101F500090932402809323028D819E817C01E0E88E
:101F6000EE22FF2487FF13C08B819C810497E090B1
:101F70002102F0902202F1E0EF1AF1088E159F0580
:101F800008F47C0167EB72E0C7010E940405F701C9
:101F9000E954FD4F10829092250240E46EE180E802
:101FA0000E942B0580918F02882369F080913B026B
:101FB000823009F408C108F000C1882309F489C1FE
:101FC000813009F4A6C1E114F10409F033C2809113
:101FD0008E02857029F180918C0290918D02892B5F
:101FE000F9F461E184ED0E945C0561E082ED0E94FC
:101FF0005C058AEE0E94760580FDFBCF60E082EDF5
:102000000E945C0589ED0E94760582FF09C088E880
:1020100092E00E94140980918E02886080938E0263
:1020200080918C0290918D02019690938D02809305
:102030008C0280918702813009F06DC080918E0200
:1020400081FF69C082E08093870280912B018F5FBE
:1020500080932B01182F1F718DE792E00E944E0193
:102060006DE772E0882309F4E2C18FE692E00E94F6
:10207000EB0808E00093C3021092C40249E050E06C
:1020800060E071E085EC92E00E94A0162CE22093C3
:10209000C80286E08093CE020E94E3041092DB0225
:1020A0001092DC028BE08093D9021093DA02EDEDFE
:1020B000F2E0DF011D920A95E9F780912A018093F1
:1020C000DF028D5F80932A01B0E6B093E50282E0E3
:1020D0008093E602E3E0E093E7021092E8021092B8
:1020E000E9021092EA021092EB021092EC02809345
:1020F000ED028092EE028093EF0286E28093F0027E
:1021000022E040E250E06AE182E30E9490048AE328
:1021100090E00E948E0583E892E00E944E018823A1
:1021200071F08091820281110AC080918102811137
:1021300006C083E892E00E941409909281028DE724
:1021400092E00E944E01882371F080917C028111FF
:102150000AC080917B02811106C08DE792E00E9447
:10216000140990927B0218E087ED94E00E94CE0162
:10217000892B09F43FC387ED94E00E94AC01909154
:102180009E02E92FF0E0ED56FD4F808320919202F0
:102190002E3E09F024C38F3E09F021C310929E0207
:1021A000E3E9F2E099E080E0915009F4CDC2219199
:1021B0008227FACF61507109AFCE833009F455C040
:1021C000843009F000CF65E0C7010E940106882332
:1021D00009F4CAC080912A02811108C088E30E94D4
:1021E0007605682F6E7F88E30E945C0561EF72E0E0
:1021F00083ED94E00E94AD08E1EDF3E0870109541E
:102200001D4F6F01B2E0CB0ED11CB18080818630B2
:1022100009F4FCC008F0BFC0813009F4EDC0833080
:1022200009F4F0C0F601EB0DF11DE017F10748F3DA
:102230000E943E046093330270933402809335020F
:102240009093360280918802882359F010928D0273
:1022500010928C0290928E0268E872E0CB010E948C
:10226000AD08F3E0F0933B02AECE409037025090C1
:1022700038026090390270903A022FEF42165206EF
:102280006206720609F49FCE0E943E04009133025A
:10229000109134022091350230913602601B710B8F
:1022A000820B930B641575058605970508F48BCE94
:1022B00083ED94E00E94480980923B020E943E0414
:1022C00060932F0270933002809331029093320218
:1022D0007ACE0E943E0460932B0270932C0280936E
:1022E0002D0290932E02E3EDF4E0DF01282D1D92E4
:1022F0002A95E9F790E080E00E94480988E30E946F
:102300007605682F616088E30E945C0590923B022D
:10231000D5CF62E0C7010E940106882329F161EF51
:1023200072E0CE0101960E94AD08E1EDF3E0C70135
:1023300089549D4FBF016E5F7F4F218130813633BD
:1023400061F486E292E00E94AD08CE0101960E94FF
:10235000480982E080933B02B1CFFB01E20FF11DFF
:10236000E817F90738F3F1CF0E943E0400912F02DD
:10237000109130022091310230913202601B710BBA
:10238000820B930B613177428105910508F41BCED6
:1023900010923B0218CE8A3331F08F3F09F448CFB8
:1023A000833309F03FCF1092370210923802109217
:1023B000390210923A02F601C601049620E030E09C
:1023C000A9016191542F432F322F2227260F311D4F
:1023D000411D511DE817F907A1F72F3FEFEF3E0709
:1023E0004E075E07B9F420933702309338024093CA
:1023F000390250933A0216CFB6018FEC94E00E9456
:10240000AD0810CFB60188E892E0F9CFB60183E8B5
:1024100092E0F5CFA8EEB3E00E948F1A60933702E6
:10242000709338028093390290933A02FBCE85E78D
:1024300092E01DCEF9E2EF16F10408F494CE8091FB
:10244000C302883009F08FCE8091C402863009F033
:102450001EC444E050E063ED74E08DED92E00E9414
:10246000D71B892B09F07FCE8091CC02813029F5D2
:102470008DEB92E00E94A2081092CB0282E0809342
:10248000CC026DEC72E087ED92E00E949A086CE35A
:1024900072E08DEC92E00E949A0863ED72E08DED9F
:1024A00092E00E94AD0863ED74E083ED92E00E943B
:1024B000AD088AE290E00E948E0580918E0283FF33
:1024C0000DC01091CC02123049F465E772E088E843
:1024D00092E00E94FD08811110938E028091820289
:1024E000811110C080918102882361F06FE672E053
:1024F00083E892E00E94FD08882321F090928202F6
:102500001092810280917C0281112DCE80917B02FC
:10251000882309F428CE6FE672E08DE792E00E94EE
:10252000FD08882309F41FCE90927C0210927B0252
:102530001ACE90916E02911122C026E3E216F104A8
:1025400008F411CE0091CE02063009F00CCE809135
:10255000DB028B3009F0A8C044E050E06DE772E088
:1025600081ED92E00E94D71B892B09F0FCCD1091E0
:10257000E60212FF50C085E080938702F4CD8131DE
:10258000E1F636E4C32E32E0D32EB12CA12C20E0AC
:1025900080916E028A151B04D1F1CCF1D6011296FE
:1025A0003C91129713969C9113978091DB02292EF0
:1025B000312C8215130421F58091DC02831320C095
:1025C00014964C9014974420D9F04091DE02485064
:1025D000550B2091DD02022F10E0102F0027040F71
:1025E000151F4091D9025091DA02542745275427EC
:1025F000ED91FC9121EE32E061ED72E00995242D20
:10260000BFEFAB1ABB0AE5E0CE0ED11CC1CF22232F
:1026100009F493CFA8CD0E944A042091870222306A
:1026200079F5212F2271223101F560E090E080E000
:102630000E94C708F8E1F093E60223E020938702A6
:102640001092C70288E28093C8020E94E3041092AD
:10265000E9021092EA0222E04CE150E06AE182E3F2
:102660000E94900486E390E058C3909287020196FE
:1026700014FF02C090E080E064E00E94C70873CDC0
:10268000253009F470CD10FF0AC0233009F46BCD5A
:1026900069E001960E94C7080093870264CD60E05C
:1026A000009709F460CDE9CF81115DCD8091DC0206
:1026B000803509F058CD1091E60211FF38C0109214
:1026C000C7028CE28093C8020E94B50892E1909301
:1026D000E60260E081E090E00E9465041092DD0275
:1026E0001092DE0280912A018093DF021092E002B4
:1026F0008D5F80932A0182E08093ED028092EE024A
:1027000085E08093EF021092F002A0E6A093E5022C
:102710008093E702B8E7B093E80222E040E250E09D
:102720006AE182E30E9490048AE390E0F6C214FF1B
:102730001ACD0E944A04892B09F015CD10FF13CD44
:1027400060E090E080E099CF809391021093900236
:1027500090919B02891308CD0E943E049B01AC011D
:102760006093AD023093AE028093AF025093B002FB
:102770001092B1021092B2021092B3021092B402FF
:1027800060919302709194028091950290919602CB
:102790000E94881A6093B7047093B8048093B904B8
:1027A0009093BA0460919702709198028091990277
:1027B00090919A020E94881A6093B3047093B404B3
:1027C0008093B5049093B6041093B2041092B104B0
:1027D0001092B0041092AF041092AE04C5CC809356
:1027E00092029F5F9B3018F490939E02BDCC109292
:1027F0009E02BACC0E943E049B01AC0160E070E0F6
:1028000080E090E0A090AD02B090AE02C090AF0228
:10281000D090B002E090B102F090B2020091B30209
:102820001091B4020E949A1A283B3B404105510581
:10283000610571058105910509F008F404C1109244
:10284000B7041092B8041092B9041092BA0410920E
:10285000B3041092B4041092B5041092B60410920E
:10286000B20481E480937C0080917A00806480933C
:102870007A0080917A0086FDFCCF8091780060918B
:102880007900762F682F072E000C880B990B0E9479
:10289000B91720E030EC4FE754E40E94161721EE00
:1028A0003AE74CE950E40E944A189B01AC0161EE02
:1028B0007AE78CE990E40E94A9169B01AC0163EAD7
:1028C0007CED87E795E40E94161720E030EC4AE49F
:1028D00054E40E94A91628E834EF43EB5FEB0E9412
:1028E000B71820E23CEB4EE35BE40E944A186B0110
:1028F0007C01C092A702D092A802E092A902F092B5
:10290000AA020E943E04683B7B408105910508F0C5
:10291000A3C0C092A302D092A402E092A502F092BA
:10292000A6026091A3027091A4028091A5029091E9
:10293000A60223E333E343EF5EE30E94B7186B0183
:102940007C0120E030E04FE753E40E944518181660
:102950000CF4A9C0C0929F02D092A002E092A10202
:10296000F092A20260919F027091A0028091A10258
:102970009091A2020E9488176093AD048091AB02EF
:10298000882309F47AC10E94A60261E0892B09F428
:102990007AC18091CD04882309F492C00E9458071F
:1029A0000E944E038091CE04882309F459C180917E
:1029B000CD048093BB048091B7049091B80420911A
:1029C000B9043091BA043093BC042093BD049093B1
:1029D000BE048093BF048091B3049091B40420910D
:1029E000B5043091B6043093C0042093C104909391
:1029F000C2048093C3048091B2048093C404809184
:102A0000B0049091B1049093C5048093C604809162
:102A1000AE049091AF049093C7048093C804809152
:102A2000AD048093C9041092CA04EBEBF4E024E0F7
:102A3000EA3CF20709F4DAC091918091CA0489272F
:102A40008093CA04F4CF0E943E04693B7B40810519
:102A5000910508F4F4CE05CF23E333E343E75FE3C6
:102A60006091A3027091A4028091A5029091A602A8
:102A70000E944A182B013C012DEC3CEC4CE45DE338
:102A8000C701B6010E944A189B01AC01C301B20103
:102A90000E94AA166093A3027093A4028093A502D9
:102AA0009093A6023ECF80E090E0AFE7B3E480933E
:102AB0009F029093A002A093A102B093A20252CFD2
:102AC000E091B602E73008F06EC0F0E0E659FA4E49
:102AD0000C94821A71157515C315C715C915CD1536
:102AE000D0152FE740E06FE703C02FE34FE36FE31C
:102AF00090E080E00E94D9008091B502882309F41B
:102B00005EC020E04FEF60E081E090E00E94D900DD
:102B10000E943E049B01AC0160E070E080E090E028
:102B2000A090AD02B090AE02C090AF02D090B002C3
:102B3000E090B102F090B2020091B3021091B402A1
:102B40000E949A1A273B3B404105510561057105DA
:102B50008105910511F008F03EC00E943E04693BDA
:102B60007B4081059105B8F12FEF4FE760E082E0EF
:102B700090E00E94D90081E09091AC02911180E038
:102B80008093AC020DCF20E04FEF60E0B1CF2FEF8C
:102B9000FBCF20E04FE76FEFABCF20E040E0FBCF73
:102BA0002FE74FE7A0CF8091820590918305892B75
:102BB00009F4A2CF90E080E00E941F019DCF809198
:102BC000820590918305029708F4A2CF81E090E0FE
:102BD0000E941F019DCF80918205909183050397EC
:102BE00050F282E090E00E941F01C5CF8FE090E09C
:102BF0009093AC048093AB041092C7028EE2809352
:102C0000C8020E94B5088091D9028093DB028091AE
:102C1000DA028093DC0282E28093D90288EB80930F
:102C2000DA021092DD028AE18093DE021092DF0266
:102C30001092E00282E1EBEBF4E0A1EEB2E0019051
:102C40000D928A95E1F721E042E250E06AE188E2E4
:102C50000E9490048CE390E00E948E051092CE04B6
:102C6000A0E0B0E0AB2B09F449C90E94DA01882347
:102C700009F442C90E9400003FC90E94A602892BA4
:102C800009F487CE60E089E00E94CA0282CEB9E2F0
:102C9000EB16F10409F467CA811165CA8091C50277
:102CA000853409F060CA44E050E063ED74E085EDDE
:102CB00092E00E94D71B892BA9F044E050E062E427
:102CC00072E085ED92E00E94D71B892B59F044E019
:102CD00050E062E371E085ED92E00E94D71B892B02
:102CE00009F041CA8091CE02813009F022CC909146
:102CF000D902983009F01DCC0E94B5081092D90273
:102D00008091DB02883F28F09091DC029F5F9093D6
:102D1000DC02885F8093DB02C7010E948E0523CA14
:102D20008091880590918905009711F00E944E1BB3
:102D30008091860587FD03C060E00C94F802089539
:102D4000FB01DC0102C005900D9241505040D8F7C4
:102D500008955058BB27AA270E94C1160C940B183F
:102D60000E94FD1738F00E94041820F039F49F3FAC
:102D700019F426F40C94FA170EF4E095E7FB0C9482
:102D8000F417E92F0E941C1858F3BA17620773074B
:102D90008407950720F079F4A6F50C943E180EF4FC
:102DA000E0950B2EBA2FA02D0B01B90190010C015B
:102DB000CA01A0011124FF27591B99F0593F50F473
:102DC000503E68F11A16F040A22F232F342F4427CB
:102DD000585FF3CF469537952795A795F0405395C3
:102DE000C9F77EF41F16BA0B620B730B840BBAF093
:102DF0009150A1F0FF0FBB1F661F771F881FC2F7FE
:102E00000EC0BA0F621F731F841F48F48795779511
:102E10006795B795F7959E3F08F0B0CF9395880FCB
:102E200008F09927EE0F9795879508950E942A1725
:102E30000C940B180E94041858F00E94FD1740F0E3
:102E400029F45F3F29F00C94F41751110C943F18AA
:102E50000C94FA170E941C1868F39923B1F35523B8
:102E600091F3951B550BBB27AA276217730784079D
:102E700038F09F5F5F4F220F331F441FAA1FA9F333
:102E800035D00E2E3AF0E0E832D091505040E69521
:102E9000001CCAF72BD0FE2F29D0660F771F881F82
:102EA000BB1F261737074807AB07B0E809F0BB0B75
:102EB000802DBF01FF2793585F4F3AF09E3F510589
:102EC00078F00C94F4170C943F185F3FE4F3983EAD
:102ED000D4F3869577956795B795F7959F5FC9F772
:102EE000880F911D9695879597F90895E1E0660FF3
:102EF000771F881FBB1F621773078407BA0720F06C
:102F0000621B730B840BBA0BEE1F88F7E0950895D4
:102F10000E94241888F09F5798F0B92F9927B7512D
:102F2000B0F0E1F0660F771F881F991F1AF0BA956D
:102F3000C9F714C0B13091F00E943E18B1E0089575
:102F40000C943E18672F782F8827B85F39F0B93F67
:102F5000CCF3869577956795B395D9F73EF4909520
:102F60008095709561957F4F8F4F9F4F0895E8949E
:102F700009C097FB3EF490958095709561957F4FC1
:102F80008F4F9F4F9923A9F0F92F96E9BB2793956F
:102F9000F695879577956795B795F111F8CFFAF47F
:102FA000BB0F11F460FF1BC06F5F7F4F8F4F9F4FB0
:102FB00016C0882311F096E911C0772321F09EE80E
:102FC000872F762F05C0662371F096E8862F70E074
:102FD00060E02AF09A95660F771F881FDAF7880F4E
:102FE0009695879597F9089597F99F6780E870E01F
:102FF00060E008959FEF80EC089500240A9416166F
:10300000170618060906089500240A9412161306D6
:10301000140605060895092E0394000C11F4882364
:1030200052F0BB0F40F4BF2B11F460FF04C06F5F80
:103030007F4F8F4F9F4F089557FD9058440F551F56
:1030400059F05F3F71F04795880F97FB991F61F02A
:103050009F3F79F087950895121613061406551FA1
:10306000F2CF4695F1DF08C0161617061806991F0D
:10307000F1CF86957105610508940895E894BB2702
:1030800066277727CB0197F908950E94411908F424
:103090008FEF08950E945D180C940B180E94FD1785
:1030A00038F00E94041820F0952311F00C94F417C6
:1030B0000C94FA1711240C943F180E941C1870F3FA
:1030C000959FC1F3950F50E0551F629FF001729FCD
:1030D000BB27F00DB11D639FAA27F00DB11DAA1FDC
:1030E000649F6627B00DA11D661F829F2227B00D29
:1030F000A11D621F739FB00DA11D621F839FA00DB4
:10310000611D221F749F3327A00D611D231F849F03
:10311000600D211D822F762F6A2F11249F5750405A
:103120009AF0F1F088234AF0EE0FFF1FBB1F661FD5
:10313000771F881F91505040A9F79E3F510580F09E
:103140000C94F4170C943F185F3FE4F3983ED4F3CB
:10315000869577956795B795F795E7959F5FC1F742
:10316000FE2B880F911D9695879597F90895FA0182
:10317000EE0FFF1F309621053105A1F16115710594
:1031800061F48038BFE39B0749F16894903881056A
:1031900061F08038BFEF9B0741F099234AF5FF3F6C
:1031A000E1053105210519F1E8940894E795D90165
:1031B000AA2329F4AB2FBE2FF85FD0F310C0FF5F16
:1031C00070F4A695E0F7F73950F019F0FF3A38F4AB
:1031D0009F779F930DD00F9007FC9058089546F06D
:1031E0000C94FA1760E070E080E89FE308954FE7E1
:1031F0009F775F934F933F932F930E94D6192F9100
:103200003F914F915F910E944A180C940F1929F435
:1032100016F00C94F4170C943E180C94FA170E94B4
:103220002418A8F39638A0F707F80F92E8942BE338
:103230003AEA48EB5FE70E9460180F920F920F92F4
:103240004DB75EB70F920E941E1AE8E6F0E00E94AA
:1032500065194F915F91EF91FF91E595EE1FFF1F6B
:1032600049F0FE57E0684427EE0F441FFA95E1F756
:103270004195550B0E9498190F9007FE0C948C19DC
:103280000895990F0008550FAA0BE0E8FEEF1616F7
:103290001706E807F907C0F012161306E407F5074A
:1032A00098F0621B730B840B950B39F40A2661F0BE
:1032B000232B242B252B21F408950A2609F4A14061
:1032C000A6958FEF811D811D0895DF93CF931F93E6
:1032D0000F93FF92EF92DF927B018C01689406C0FE
:1032E000DA2EEF010E945D18FE01E894A591259168
:1032F000359145915591A6F3EF010E94C116FE014B
:103300009701A801DA9469F7DF90EF90FF900F9191
:103310001F91CF91DF9108959B01AC0160E070E0B7
:1033200080E89FE30C9416170C94F4170C94521A2F
:103330000E942418D8F39923C9F3940F511DA3F3C5
:103340009150504094F059F0882332F0660F771F67
:10335000881F91505040C1F79E3F51052CF7880FB0
:10336000911D9695879597F908955F3FACF0983E2B
:103370009CF0BB27869577956795B79508F4B16063
:103380009395C1F7BB0F58F711F460FFE8CF6F5F5B
:103390007F4F8F4F9F4FE3CF0C943F1816F00C9444
:1033A000521A0C94FA1768940C94F4170E9424187B
:1033B000A8F39923C1F3AEF3DF93CF931F930F9339
:1033C000FF92C92FDD2788232AF02197660F771FE8
:1033D000881FDAF720E030E040E85FEB9FE38839B0
:1033E00020F0803E38F021968F770E94AA16E0E9FF
:1033F000F0E004C00E94AA16EDEBF0E00E9465190F
:103400008B01BE01EC01FB2E6F5771097595771F7B
:10341000880B990B0E94B91728E132E741E35FE37B
:103420000E945D18AF2D9801AE01FF900F911F9182
:10343000CF91DF910E94C1160C940B18FA01DC01A8
:10344000AA0FBB1F9B01AC01BF5728F422273327CB
:103450004427507820C0B75190F4AB2F00244695F4
:1034600037952795011CA395D2F3002071F0220F08
:10347000331F441FB395DAF30ED00C94A9166130B4
:103480007105A0E88A07B94630F49B01AC016627B4
:10349000772788279078309621F0208331834283E4
:1034A000538308959F3F31F0915020F4879577958D
:1034B0006795B795880F911D9695879597F908950B
:1034C000A1E21A2EAA1BBB1BFD010DC0AA1FBB1F28
:1034D000EE1FFF1FA217B307E407F50720F0A21B9A
:1034E000B30BE40BF50B661F771F881F991F1A9407
:1034F00069F760957095809590959B01AC01BD0131
:10350000CF010895EE0FFF1F0590F491E02D09946F
:1035100069279627692778278727782708950E94A3
:10352000A31AA59F900DB49F900DA49F800D911D8F
:10353000112408952A193B094C095D096E097F0978
:10354000800B910B0895A29FB001B39FC001A39F70
:10355000700D811D1124911DB29F700D811D1124CC
:10356000911D08950F931F93CF93DF9382309105A0
:1035700010F482E090E0E0919D05F0919E0530E02E
:1035800020E0B0E0A0E0309799F42115310509F46E
:103590004AC0281B390B24303105D8F58A819B811C
:1035A0006115710589F1FB0193838283FE0111C0CE
:1035B000408151810281138148175907E0F0481773
:1035C000590799F4109761F012960C93129713967D
:1035D0001C933296CF01DF91CF911F910F910895E7
:1035E00000939D0510939E05F4CF2115310551F0F0
:1035F0004217530738F0A901DB019A01BD01DF0131
:10360000F801C1CFEF01F9CF90939E0580939D05FE
:10361000CDCFFE01E20FF31F819391932250310928
:1036200039832883D7CF20919B0530919C05232B8C
:1036300041F420912E0130912F0130939C0520936D
:103640009B0520912C0130912D012115310541F46C
:103650002DB73EB74091300150913101241B350BFD
:10366000E0919B05F0919C05E217F307A0F42E1B57
:103670003F0B2817390778F0AC014E5F5F4F2417D6
:10368000350748F04E0F5F1F50939C0540939B05F4
:10369000819391939FCFF0E0E0E09CCFCF93DF93B5
:1036A0000097E9F0FC01329713821282A0919D05E8
:1036B000B0919E05ED0130E020E01097A1F420814B
:1036C0003181820F931F20919B0530919C05281713
:1036D000390709F061C0F0939C05E0939B05DF91E9
:1036E000CF910895EA01CE17DF07E8F54A815B81A3
:1036F0009E0141155105B1F7E901FB83EA83499128
:103700005991C40FD51FEC17FD0761F48081918199
:103710000296840F951FE9019983888382819381A2
:103720009B838A83F0E0E0E012968D919C91139741
:103730000097B9F52D913C911197CD010296820F1A
:10374000931F20919B0530919C052817390739F666
:10375000309751F510929E0510929D05B0939C05EF
:10376000A0939B05BCCFD383C28340815181840F3A
:10377000951FC817D90761F44E5F5F4F8881998103
:10378000480F591F518340838A819B819383828391
:103790002115310509F0B0CFF0939E05E0939D050A
:1037A0009ECFFD01DC01C0CF13821282D7CFFB0177
:1037B000DC0104C08D910190801921F441505040EA
:1037C000C8F7881B990B0895DC0101C06D93415027
:1037D0005040E0F7089510E0CEEAD0E004C0FE01CA
:1037E0000E94821A2196CF3AD107C9F7F894FFCFE9
:1037F00041726475696E6F2D454E4332386A3630BA
:103800002D3030000000000000000000000000002B
:10381000C0A809B97069692D30310A0100009F05FF
:103820008000FFFFFFFFFFFF0000000010026E019D
:103830009D015D02CE01AC01C00100000000E30665
:10384000D806F406AE06D106BE06AF06000000009C
:0238500050081E
:00000001FF
